:1000000000800020BD010000B148000069480000E8
:10001000694800006948000069480000694800001C
:10002000694800006948000069480000B1480000C4
:10003000B148000069480000B1480000594800007C
:10004000B1480000B1480000B1480000B1480000CC
:10005000B1480000B1480000B1480000B1480000BC
:10006000B1480000B1480000B1480000B1480000AC
:10007000B1480000B1480000B1480000B14800009C
:10008000B1480000B1480000B1480000B14800008C
:10009000B1480000B1480000B1480000B14800007C
:1000A00091410000B1480000B1480000B148000093
:1000B000B1480000B1480000B1480000B14800005C
:1000C000B1480000B1480000B1480000B14800004C
:1000D000B1480000B1480000B1480000B14800003C
:1000E000B1480000B1480000B1480000B14800002C
:1000F000B1480000595B0000B1480000B562000043
:10010000B148000031680000B1480000B14800006B
:10011000B1480000B1480000B1480000B1480000FB
:10012000B1480000B1480000B1480000B1480000EB
:10013000B1480000B1480000B1480000B1480000DB
:10014000B1480000B1480000B1480000B1480000CB
:10015000B1480000B1480000B1480000B1480000BB
:10016000B1480000B1480000B1480000B1480000AB
:10017000B1480000B1480000B1480000B14800009B
:10018000B1480000B1480000B1480000B14800008B
:10019000B1480000B1480000B1480000B14800007B
:1001A000B1480000B1480000B1480000B14800006B
:1001B000B1480000B1480000814F0000574B4CF29D
:1001C000205210B51A804DF628121A8000BF00BFC9
:1001D00004F072FB524B4FF010621A60514A9A6061
:1001E000514ADA60A3F53043203B1A6812F480725A
:1001F00004D14E490A604FF4A8521A604C4B1A7849
:10020000110703D51A7842F008021A70494B4A4C7C
:100210004A482A221A704A4A00239918A14203D256
:10022000195899500433F8E7464B474900228B424E
:1002300002D243F8042BFAE74448454900235A58B0
:100240001A500433B3F5DE7FF9D1424B424A802184
:1002500003F8011B9342FBD1404B3C4A1A60404BD0
:100260008A221A70A3F5805324225A70A0221A7091
:100270009A799207FCD59A79D406FCD4394A9379B5
:1002800003F00C03082B374BF9D103221A714622D5
:100290005A719A799006FCD5324A9179314B4906C8
:1002A000FBD5314A4FF08271116009215160202243
:1002B0001A709A7902F00C020C2AFAD12B4B2C4AB4
:1002C0001A602C4B2C4A1A6000225A60072243F80D
:1002D000042C2A4AC3F80C2D62B604F0B1FC134B6F
:1002E0001B68DA0705D5264804F040FC254B264A52
:1002F0001A60264B1B785B0609D5224C224A2368DC
:10030000934204D11E4804F031FC0023236008F01E
:100310004BFD04F0D7FA05F0C9F8FEE70E200540C2
:1003200030800440823F04000100002B14D00340C1
:1003300002D0074000E0074010C3FF1F4CBF000081
:1003400000B8FF1F10C3FF1F14D1FF1F00B6FF1F0F
:100350000000000000E400E05FE400E008ED00E0E1
:1003600000500640004006404480044004800440A1
:10037000C010050014E000E0BFD401000000202000
:100380007EA7AC5C1CE00340A5C3945A00F0074074
:10039000FFFFFFFFFFFFFFFFFFFFFFFFFFFFFFFF6D
:1003A000FFFFFFFFFFFFFFFFFFFFFFFFFFFFFFFF5D
:1003B000FFFFFFFFFFFFFFFFFFFFFFFFFFFFFFFF4D
:1003C000FFFFFFFFFFFFFFFFFFFFFFFFFFFFFFFF3D
:1003D000FFFFFFFFFFFFFFFFFFFFFFFFFFFFFFFF2D
:1003E000FFFFFFFFFFFFFFFFFFFFFFFFFFFFFFFF1D
:1003F000FFFFFFFFFFFFFFFFFFFFFFFFFFFFFFFF0D
:10040000FFFFFFFFFFFFFFFFFFFFFFFFDEF9FFFF23
:1004100010B5054C237833B9044B13B10448AFF33E
:1004200000800123237010BD10C3FF1F00000000D7
:100430004CBF000008B5064B1BB106480649AFF398
:1004400000800648036813B1054B03B1984708BD07
:10045000000000004CBF000014C3FF1F10C3FF1FAB
:100460000000000010B5044600F5047002F0ACF97D
:10047000204610BD002310B4104C4172026104608C
:100480000372C36041B1194600E0026942F82310CB
:10049000427A01339A42F8DC094B1A680AB90BE038
:1004A0001A465369002BFBD15061002343618380BE
:1004B000C3805DF8044B70471860F6E7A0A0000009
:1004C000D4CEFF1F0021164B036010B400F12802A8
:1004D00004240B46447202610172C16000E00269AB
:1004E00042F82310427A01339342F8DB0D4B1A682D
:1004F0000AB913E01A465369002BFBD150614FF43F
:1005000080330022084942618280C2800160836199
:10051000C361036243625DF8044B70471860EEE705
:10052000A0A00000D4CEFF1F80BA000011490A68C5
:10053000002310B4104C0460437203610372C36063
:100540000AB915E01A465369002BFBD1506100230C
:100550000A4A43618380C38003834383C361036288
:1005600083628385C385036302605DF8044B704733
:100570000860ECE7D4CEFF1FA0A00000A0BA0000E6
:100580002DE9F04F4D4B4E491A684E4B0C7885B013
:1005900003EB021A0AF1080ACDF808A0002C51D08A
:1005A000494A4A4B029E12681B68DFF83881484F5F
:1005B000019200240393A146B2463AF9023FFF2B71
:1005C00023D0019A9B1877D47F2BA8BF7F23414A61
:1005D000039952F8235044F80850284608F0BEF911
:1005E0003D4B08EB040E54F803B006465946CEF8CE
:1005F0001060284608F0A8F859463851304608F0EF
:10060000A3F83B1909F1020918610434102CD4D164
:1006100009F1FF3C314A324B52F82C10DDF808A0AA
:10062000002403F110003AF9022FFF2A1ABF43F801
:10063000101C196043F8104C04338342F3D105B009
:10064000BDE8F08F204BDFF88C901D68224F254EBF
:10065000DDF808B0A24611E07F2BA8BF7F2359F830
:100660002380E159404608F06FF8194A44F80680A3
:1006700010510AF1010A0434202C07D03BF9023F43
:10068000FF2BF8D05B19E7D50023E8E70AF1FF322A
:10069000124B1549DDF808A053F82200002400236E
:1006A0003AF9022FFF2A14BFC850CC500433202B34
:1006B000F6D105B0BDE8F08F002388E79CC9FF1F85
:1006C00058CBFF1F00C7FF1F60CBFF1F60B9FF1F84
:1006D00044CAFF1FA8C4FF1F94B9FF1F40B9FF1FE2
:1006E000F0B8FF1F74B9FF1FE0B8FF1F2DE9F84FE6
:1006F0000024DFF86CB0DFF86CA08146A04647F616
:10070000FF7717E0304608F0E5FA124B50B912496E
:10071000304608F023F94FF07C5108F017F808F044
:1007200009FB03460434202CAB62C5F81C80A5F8F5
:100730002C900DD05AF804605BF8045000212F83F0
:10074000304608F0A9FA05490028DBD00023E9E784
:10075000BDE8F88FC0FFFF3F4B243E47A655AC468F
:1007600030C9FF1F74B9FF1F0B4A0C4904380240FF
:10077000002A0CDB0A4B51F8220003F1200153F848
:10078000042F8B421063FAD10420FFF7AFBF013A68
:1007900062F007020132EDE707000080B4B9FF1FE5
:1007A0002CC9FF1F2DE9F04F3F4D2C7883B0002C52
:1007B00051D03E4A3E4B126801921B680198C01A04
:1007C00008F074F83B4B196808F0C8F801464FF080
:1007D0007E5007F0B9FF0021814608F05DFA00283D
:1007E0005DD1354FDFF8E4B0DFF8E4A0334E0024EC
:1007F00014E0284608F06EFA3149324B48B92846D1
:1008000008F0ACF84FF07C5107F0A0FF08F092FA26
:1008100003460434202CC8F8283019D05BF80410A3
:10082000484608F09BF80146385907F08DFF002133
:1008300005464AF8040008F02FFA56F804802249C9
:100840000028D6D004340023202CC8F82830E5D165
:1008500003B0BDE8F08F184F184E14E0284608F09A
:1008600039FA1749174B48B9284608F077F84FF07E
:100870007C5107F06BFF08F05DFA03460434202C2E
:10088000C8F82830E4D03D5956F8048000212846A5
:1008900008F002FA0C490028E0D00023EEE700231C
:1008A0004FF000092B709CE774CAFF1FD0CEFF1FCA
:1008B00030C3FF1FD4B9FF1F74B9FF1F30C9FF1F1A
:1008C0004B243E47C0FFFF3FA655AC4644CAFF1F1E
:1008D00094B9FF1F744AF8B51268744B744C53F8FE
:1008E00022502168284608F039F87249064608F077
:1008F000F1F940B93046704908F0CEF9002800F00F
:10090000CB806E4800E06E486E4E6168B06128464C
:1009100008F024F86749074608F0DCF940B9384682
:10092000654908F0B9F9002800F0AD80634B00E09C
:10093000634BA168F361284608F010F85D4907464B
:1009400008F0C8F940B938465B4908F0A5F9002815
:1009500000F09080594B00E0594BE1683362284623
:1009600007F0FCFF5349074608F0B4F938B9384698
:10097000514908F091F9002873D0504B00E0504BDA
:1009800021697362284607F0E9FF4A49064608F0E4
:10099000A1F938B93046484908F07EF9002858D006
:1009A000464800E04648484E6169B061284607F075
:1009B000D5FF4049074608F08DF938B938463E4919
:1009C00008F06AF900283BD03C4B00E03C4BA169A1
:1009D000F361284607F0C2FF3649074608F07AF966
:1009E00030B93846344908F057F900B3334B00E0CA
:1009F000334BE1693362284607F0B0FF2D490446C6
:100A000008F068F938B920462B4908F045F928B1B3
:100A10002A487062F8BD2A487062F8BD4FF08F41D5
:100A2000204607F09BFF08F05FF97062F8BD4FF0B9
:100A30008F41384607F092FF08F056F90346D8E791
:100A40004FF08F41384607F089FF08F04DF9034613
:100A5000BDE74FF08F41304607F080FF08F044F9C2
:100A6000A1E74FF08F41384607F078FF08F03CF9D6
:100A7000034685E74FF08F41384607F06FFF08F0D7
:100A800033F9034669E74FF08F41384607F066FFB8
:100A900008F02AF903464CE74FF08F41304607F043
:100AA0005DFF08F021F92FE7F4CAFF1F10B9FF1FFF
:100AB000E0B8FF1F00FEFF4600FEFFC600000180F9
:100AC0000000FF7F64C9FF1F6CC3FF1FD0F101014D
:100AD00010B538BF00210446032004F059F8631E06
:100AE00059425941042004F053F8A21E5142514189
:100AF000052004F04DF8E01E41424141BDE81040A0
:100B0000062004F045B800BF38B510480A2101F0AE
:100B100019FFC0B904460D480A2101F013FF05462C
:100B20000F2085B9FFF7D2FF142004F06DF804F010
:100B30000300FFF7CBFF0134142004F065F8052C07
:100B4000E9D1284638BD0125284638BDF4CBFF1F22
:100B500030B58310194D002B83B004462B6008DD9F
:100B6000174B184A1B6801930199174B116001221A
:100B70001A701648204000281BDBFFF7A7FF40F241
:100B8000D240E1B203F03CFE114B4FF080421A60BC
:100B90002B6843B12046FFF7E7FD0E4B4FF0804234
:100BA0001A6003B030BD0C4B33F91400FFF79EFD03
:100BB000F3E7013860F003000130DEE7A4C4FF1F53
:100BC000D0CEFF1FCCCAFF1F90C4FF1F03000080C0
:100BD00088E100E008E100E068B9FF1F30B5174B7D
:100BE0001B68002B83B01BDD1549164A086800906E
:100BF000013B4FF49675009C106805FB03F36433CA
:100C0000201A83420CD81048096803780191019991
:100C1000116083F00103037023B90F20FFF756FF23
:100C200003B030BD094B0A481B6818400028F5DAAC
:100C3000013860F003000130F0E700BFA4C4FF1FDB
:100C4000D0CEFF1FCCCAFF1F90C4FF1FF4CAFF1FE6
:100C5000030000802DE9F04109208CB003F0F2FC84
:100C60008046062003F0EEFC0446072003F0EAFC71
:100C70007A4F7B4E0546082003F0E4FC08EB0403A2
:100C800041F6FF72D7F800E076499342A8BF1346B9
:100C900023EAE3730EF1400C9042A8BF1046954240
:100CA000A8BF15464FF00008634520EAE07425EA26
:100CB000E575336081F8008004DCAEF140029342B8
:100CC00080F2A5803B60684B1A6802F140008542C3
:100CD00004DCA2F14000854280F2948001221D6074
:100CE0000A70624B1A6802F14000A04204DBA2F1D4
:100CF0004000A04240F3818001221C600A705C4BDE
:100D000030681B68009300210B464FF4005204F03A
:100D10008BFA584B58491A680860904203D0574ADA
:100D2000186001231370564B1868844256DD201A50
:100D300007F0C0FD534B196807F010FE524907F049
:100D400005FD4FF07E5107F001FD07F0CDFF044691
:100D50000021302300934FF400520B46284604F044
:100D600063FA4A4B4A491A6820449042086003D00B
:100D7000424A186001231370464C082003F00EFF0E
:100D80002368454A039303991368C91A0A2900D9AD
:100D900030B321680591059925680695069E25685A
:100DA0000795CB1A079D3B493B4F03FB1063E81A9D
:100DB000B0F57A7F13600BD90B6808930898374A0F
:100DC0000B680993364B09991060012239601A703B
:100DD000344B1B7813B30CB0BDE8F0812424B7E783
:100DE00025682E490495049D0968691AB1F57A7F32
:100DF000CFD32D4901250D70CBE7A41A02EB641463
:100E00001C607CE7AD1A02EB65151D6069E7CEEB4F
:100E100003030EEB63133B60336054E7234800F099
:100E2000B3FF224800F0EAFF214B187078B9214B3C
:100E3000196823680B930B9B591A13298CBF002147
:100E400001210B2003F0A4FE0CB0BDE8F081236863
:100E50000A930A9B174A19461360EAE7D0CAFF1F94
:100E600038CBFF1F9CC4FF1F80CAFF1FA0C4FF1FF9
:100E700008B9FF1F98C4FF1F9CC9FF1F04B9FF1FBB
:100E80000CCAFF1F5CCBFF1F000010422CC3FF1FCA
:100E900060CBFF1FD0CEFF1F10C4FF1F34CBFF1F3E
:100EA00084CAFF1F4CCBFF1FB8C6FF1F50CBFF1FCC
:100EB00060C9FF1F94C4FF1F2DE9F041504D86B05B
:100EC000FFF7C8FE2B78002B40F089804D4C4E4F29
:100ED000236801934D4BDDF804C04D4920681A6822
:100EE00002904C4E0878DDF808E03178C2EB0C0C2B
:100EF00000FB1CE21A6000293AD12B78002B49D163
:100F0000454E3B78404A9BB12168444B049144498B
:100F100004981B680968C31A99429CBF0023137088
:100F2000404B4FF080451D60FFF73CFC3E4B1D6081
:100F3000FFF754FE3378384DBBB122683B4B059226
:100F40003B4A05991B681268CB1A9A420DD20B20B6
:100F5000002103F01DFE0920002103F019FE0920E5
:100F6000002103F029FE00232B7006B0BDE8F081BC
:100F7000304B314A186811680130890090FBF1F25A
:100F800001FB120210461A60FFF7E2FD0122002366
:100F90002A703370236803934FF00108234B1E4ED1
:100FA000039A1A604146092086F8008003F004FE87
:100FB00041460B2003F0ECFD4146092003F0E8FD1B
:100FC000184B4FF08048C3F80080FFF7EBFBFFF7AA
:100FD00081FC154A0023C2F800802B7091E7FFF7CF
:100FE000CFFA164B074C1B7843B122680B4B00928B
:100FF000054F009A1A6001233B7069E7024F67E7CB
:1010000004B9FF1FD0CEFF1F74CAFF1F34C3FF1FD8
:101010007CCAFF1FB8C6FF1F4CCBFF1F30C3FF1F8A
:1010200064B9FF1F88E100E008E100E078CAFF1F13
:1010300000B9FF1FF4CAFF1F0CB9FF1F0CC4FF1F2C
:1010400008B5453807F02CF802460B4606A1D1E951
:10105000000105F025FE0022054B07F087F807F098
:101060001FFB08BDAFF30080000000A08FF3F03F2E
:1010700000807B40AFF300802DE9F047022082B072
:10108000002103F099FD0820002103F095FD0920BF
:10109000002103F091FD0B20012103F08DFD0620BE
:1010A000012103F089FD0520012103F085FD0420C5
:1010B000012103F081FD0320012103F07DFD322198
:1010C00079487A4C7A4F7B4E7B4D03F043FE0D20DE
:1010D00003F084FA794BDFF858C2DFF858E2784819
:1010E0007849794A1C6183E800509F60DE6058614E
:1010F0009961DA6100242046FFF7A2FF0134802CB9
:1011000045F8040FF7D17149714B08681A78C40487
:1011100042F0010109D58A4207D06E4D6E484FF466
:10112000A2764FF400742E6004606848197000685D
:10113000C00442F0050209D5914207D0674C6849C6
:101140004FF4A2754FF400702560086040F2D24061
:101150001A7003F039FB634C634F034600F0030041
:101160002360FFF7B3FCFFF7CFFC0146384600F0E1
:10117000B3FD5E4A7B78797A1160002B00F086809F
:1011800023685B4E5B4A9B100321336011605A4B0E
:101190005A49BA7878681A70086007F087FB0146E8
:1011A0004FF07E5007F08EFCDFF88C81544D554A8D
:1011B000554B397897F808E0C8F800001170C5F869
:1011C00000E003F120004FF0804153F8042F8342E8
:1011D0001162FAD14D4ADFF864E14D494D4F4FF0AD
:1011E000060C4FF4803A4FF4804347F670594FF0A5
:1011F00000081046C2F830A0A2F82AC0A2F82EC0FB
:10120000A2F834C0CEF81830CEF81C30CEF820301A
:10121000CEF82430BB61FB613B627B62C1F8189061
:10122000C1F81C90C1F82080C1F8248000F0A2FE13
:101230003368002B30D02068FFF796FA364B374AD8
:101240001B6801930199364B116001221A702868BE
:10125000344D07F02FFB044601464FF08C4007F059
:1012600031FC4FF07C5107F079FB07F03DFD2E4A31
:1012700003461360C0F5005007F01CFB01462046F2
:1012800007F020FC286002B0BDE8F087194A23600F
:1012900001231360164E7AE72268244B33F91200BB
:1012A000FFF724FAD3E700BF0080FF1FD8C3FF1F5A
:1012B00010CAFF1FA4C3FF1FA4C4FF1F30C9FF1F14
:1012C000CCC6FF1F88CAFF1F14C4FF1F3C80044008
:1012D00004CFFF1F18B0044008C0044014B00440FD
:1012E00004C00440F4CAFF1F00C7FF1F08B9FF1F56
:1012F000A4C4FF1F0CB9FF1F0CC4FF1F64B9FF1F5C
:1013000070B9FF1F58CBFF1F2CC9FF1F58C4FF1F08
:10131000A0C9FF1F6CC3FF1FD0CEFF1FCCCAFF1F89
:1013200090C4FF1F5CCBFF1F0CCAFF1F68B9FF1FD3
:10133000D8C9FF1F38C3FF1FD4B9FF1F64C9FF1FDF
:101340002DE9F04FDFF8F0B2DFF8F0A2DFF8F0920D
:10135000984E994DDFF8EC82984C994F8BB003F082
:10136000E9F9584600F0F0FC5846092100F0F4FC79
:101370005846282100F006FD924B934A19680991BE
:10138000DDF824C019680891DDF820B019680791CC
:10139000DDF81CE019680691069819680591059911
:1013A000C2F800C01A680492DFF89CC2049A1B6855
:1013B0000393CCF800B0854BDFF890C21860CCF8EE
:1013C00000E08348DFF888E2824BCEF8001002602C
:1013D000039919605046FFF7A9F84846FFF7A6F8A9
:1013E0007D48FFF7A3F87D48FFF7A0F87C48FFF79A
:1013F0009DF87C48FFF79AF87B48FFF797F87B4801
:10140000FFF794F83046FFF75DF82846FFF75AF8E3
:101410004046FFF757F804F1180220460121FFF774
:1014200029F8734B2360532009234AF6C022A621D2
:101430004FF0000B6385E08503232263A18607F14B
:10144000180201213846A385019384F81CB0A4F842
:1014500028B0FFF70FF8674A3A60384600F0C0FE40
:10146000654A1046C2F800A0566082F808B082F8BB
:1014700009B0C2F80CB003F051FD604A4FF0010A08
:101480001046C2F80090566082F808B0C2F80CB05E
:1014900082F809A003F042FD594A4F4982F808B08A
:1014A0004FF00209104682E84200C2F80CB082F800
:1014B000099003F033FD534A484982F808B0019B74
:1014C0005372104682E84200C2F80CB0019303F058
:1014D00025FD4D4A424982F808B0104682E82200B4
:1014E00082F809B0C2F80CB003F018FD474A3D4934
:1014F00082F808B0104682E8220082F809A0C2F8FB
:101500000CB003F00BFD424A374982F808B0104690
:1015100082E8220082F80990C2F80CB003F0FEFCC9
:101520003C4A324982F808B01046019B537282E867
:101530002200C2F80CB003F0F1FC374B184683E8E8
:10154000400183F808B083F809B0C3F80CB003F089
:10155000E5FC324B184683E8200183F808B083F895
:1015600009A0C3F80CB003F0D9FC2D4B1846C3F802
:1015700000805C6083F808B083F809B0C3F80CB051
:1015800003F0CCFC274B184683E8900083F808B0A2
:1015900083F809B0C3F80CB003F0C0FC224923481B
:1015A00000F058F82249234A204807F0E3FB0BB02B
:1015B000BDE8F08F64C9FF1F6CC3FF1F58C4FF1F35
:1015C000F8CAFF1FD0CEFF1F34C3FF1F34CBFF1F4D
:1015D000CCCAFF1F30C3FF1F10CAFF1FA4C3FF1FC9
:1015E000D8C3FF1FCCC6FF1F88CAFF1F14C4FF1F2C
:1015F00070BA000090BA0000D4CAFF1FA8C6FF1F2F
:1016000064CAFF1F48C4FF1F14CBFF1FBCCAFF1FC3
:10161000BCC6FF1FE4CAFF1F24CBFF1F64CBFF1F04
:1016200050C9FF1F3CCBFF1FECB0000000C7FF1FDD
:1016300065040000DCB8FF1F50CBFF1FD8C9FF1F97
:1016400038C3FF1FA0C9FF1F94C4FF1F10C4FF1F92
:1016500078CAFF1FF8B50446104E00234FF480757A
:101660003220262223706370A37063720F4660607D
:10167000227231462A4604F10A0002F01DFE711959
:101680002A4604F5857002F017FE04F5047001F097
:101690008DF8C4F80C722046F8BD00BFFCB0000005
:1016A0002DE9F041AD4CD0F80C12AD4E054688B096
:1016B000204601F079FA1323D5F80C22214668461A
:1016C00001F0E0F908AB9DF8040053F813CD02993E
:1016D000D3F804E09F681C7B9DF80C80079BC5F83D
:1016E0001DC2C5F821E285F81402C5F8181285F864
:1016F0002942C5F82C32684685F81C82C5F8257247
:1017000001F062F8D5F8103296495B6805F504746B
:101710003C2220469847204603F03EFDD5F8103283
:1017200091495B683C2220469847204603F034FDEF
:10173000D5F810328D495B683D22204698472046F7
:1017400003F02AFDD5F8103289495B683D22204616
:101750009847204603F020FDD5F8103285495B6894
:101760003C2220469847204603F016FDD5F810325B
:1017700031465B68002220469847204603F00CFD66
:10178000D5F810327C495B683E22204698472046B7
:1017900003F002FDD5F8103278495B683E222046FE
:1017A0009847204603F0F8FCD5F8103274495B687E
:1017B0003E2220469847204603F0EEFCD5F8103232
:1017C00070495B683E2220469847204603F0E4FCBF
:1017D000D5F810326C495B683D2220469847204678
:1017E00003F0DAFCD5F8103231465B68002220465F
:1017F0009847204603F0D0FCD5F8103263495B6867
:10180000282220469847204603F0C6FCD5F810321F
:101810005F495B68332220469847204603F0BCFCB2
:10182000D5F810325B495B682F2220469847204646
:1018300003F0B2FCD5F8103257495B6833222046DA
:101840009847204603F0A8FCD5F8103253495B684E
:10185000192220469847204603F09EFCD5F8103206
:1018600031465B68002220469847204603F094FCEE
:10187000D5F810324A495B68152220469847204621
:1018800003F08AFCD5F8103246495B6815222046E1
:101890009847204603F080FCD5F8103242495B6837
:1018A000192220469847204603F076FCD5F81032DE
:1018B0003E495B68192220469847204603F06CFC9D
:1018C000D5F810323A495B681A22204698472046DC
:1018D00003F062FCD5F8103236495B681A222046C4
:1018E0009847204603F058FCD5F8103232495B681F
:1018F0001D2220469847204603F04EFCD5F81032B2
:101900002E495B68192220469847204603F044FC84
:10191000D5F810322A495B6819222046984720469C
:1019200003F03AFCD5F8103226495B6818222046AD
:101930009847204603F030FCD5F8103222495B6806
:10194000182220469847204603F026FCD5F810328E
:101950001E495B6819222046984739E0F4CBFF1FE7
:1019600078B30000FCB200003CB300007CB3000080
:10197000BCB30000FCB300003CB400007CB4000029
:10198000BCB40000FCB400003CB500007CB5000015
:10199000A8B50000DCB500000CB6000040B60000A1
:1019A0005CB6000074B600008CB60000A8B600005B
:1019B000C4B60000E0B60000FCB600001CB7000092
:1019C00038B7000054B7000070B700008CB70000B3
:1019D000204603F0E1FBD5F8103216495B68182267
:1019E00020469847204603F0D7FBD5F8103212491D
:1019F0005B68132220469847204603F0CDFBD5F8BC
:101A000010320E495B681D2220469847204603F09D
:101A1000C3FBD5F810320A495B6826222046984756
:101A2000204603F0B9FB204600F0D4FE08B0BDE824
:101A3000F08100BFA8B70000C4B70000D8B700000D
:101A4000F8B700002DE9F04306468DB00025457239
:101A50002946684603F036FC0123D6F80C22934948
:101A6000DFF8548204A801F00DF80CAB9DF8149037
:101A700053F8130D06999F681C7BD3F804E09DF87A
:101A80001CC00B9BC6F81D02C6F8257286F82942B9
:101A900086F81492C6F8181286F81CC204A8C6F874
:101AA00021E2C6F82C3200F08FFE2F4606F50474B2
:101AB000204600F0F5FDB0B1204600F013FEC1B2A3
:101AC0005B2922D0212905D0012D15D0022DEFD17F
:101AD0000A2933D0684603F059FC2046022500F05D
:101AE000DFFD0028E8D1204600F074FE684603F0D0
:101AF000A9FB0DB0BDE8F0832C2949D05D290AD09F
:101B0000684603F043FC0125D2E7737A0F2BF7D91F
:101B1000012DDBD1F4E7757A684603F0C1FC07EBD1
:101B2000C50706EB470762497881684603F0ECFB7E
:101B3000737A0027013373723D46B9E7D8F8003055
:101B40005C495B685C480722984769465A4803F03D
:101B5000FDFAD8F8003059495B6857480122984788
:101B6000554803F019FB564904A803F0ABFB68463F
:101B700004A903F033FC054604A803F063FBBDB1E0
:101B80000123737068464A4903F0BEFB00258FE7C6
:101B900096F80990684603F083FC07EBC90306EB4F
:101BA0004303434958816846013703F0ADFB7FE7A3
:101BB000444904A803F086FB684604A903F00EFC20
:101BC000054604A803F03EFBC5B10123B370684687
:101BD000202103F035FC021ED4DD694604A803F081
:101BE00057FC04A803F05CFC706004A803F02AFB17
:101BF0007368042B36DC05237360C3E7324904A8FD
:101C000003F060FB684604A903F0E8FB054604A85E
:101C100003F018FBB5B16846202103F011FC021E49
:101C2000B0DD694604A803F033FC04A803F038FCD7
:101C3000307204A803F006FB337A0B2B2FD80C2349
:101C400033729FE7214904A803F03CFB684604A9CE
:101C500003F0C4FB054604A803F0F4FA4DB10123D8
:101C600033708FE7B3F5967F8CDD4FF49673736016
:101C700088E7D8F8003016495B680F480F2298476C
:101C800069460D4803F062FAD8F8003011495B68E4
:101C9000094801229847084803F07EFA72E7482B6A
:101CA0007FF670AF482333726CE700BFF4CBFF1FA1
:101CB00078B3000020B8000008CFFF1F58B600001E
:101CC00028B8000030B8000038B8000040B8000064
:101CD00048B8000058B8000030B5054689B089B949
:101CE00000F1080300F5847403F11001B3F8022138
:101CF00023F8022F8B42F9D1A342F5D110236B7246
:101D000009B030BD68460E490E4A012300F0BAFE04
:101D10000B48D5F80C1200F039FF38B12846FFF710
:101D200091FE684600F050FD09B030BD2846FFF72F
:101D3000B7FC2846FFF786FE684600F045FDF3E74E
:101D4000F4CBFF1F5CB8000000220A2181800260F2
:101D50008271C271704700BF10B504460023C8B23B
:101D600082B0E071A37102F019FF08B10323A371DF
:101D7000034B1B680193019B236002B010BD00BFA1
:101D8000D0CEFF1F81807047F0B5044685B0C07982
:101D900002F004FFA279003018BF0120C2F3400115
:101DA00002F0F7038842A3710BD0134A1268019224
:101DB00083F00203019AA3712260C3F3C00005B04F
:101DC000F0BD0D4925680E680296029FA6887D1B0E
:101DD000B542F2D302F001029042EED00A680392BB
:101DE00083F0010343F00803DBB2039AA371C3F34A
:101DF000C000226005B0F0BDD0CEFF1F807900F09A
:101E00000900B0F109035842584170472DE9F84FD5
:101E10000021044603F060F88046002800F09D8011
:101E2000237F002B65D0031D00F5827C63455AD2C9
:101E30004FF4803A4FF0040940E0217F022947D057
:101E400003295AD0042964D0052977D0062900F047
:101E50008680012977D0216A626A4FF6FF7E02EB05
:101E6000010B1D6858689F68D9683BFB05F69344D1
:101E70003BFB15F5C6EA054693443BFB00F593444E
:101E80003BFB10F0C5EA004593443BFB07F093444D
:101E90003BFB17F7C0EA074093443BFB01F75A446A
:101EA000226232FB11F2C7EA02471E605D60986051
:101EB000DF60A4F81EE010339C4514D9E28B002AA1
:101EC000BBD002F1FF3E216A626A1FFA8EFEC6E7AE
:101ED000A18DE18331B34FF003009C452077C4F816
:101EE00020A06262EAD820464146002202F0CEFFDE
:101EF0004046BDE8F84F02F0A5BF216BE28D84F8A3
:101F00001C90A1F5803191FBF2F1C9106162E2836E
:101F1000D2E7216B62624FF00500207721624FF615
:101F2000FE7E9CE7E28D216B84F81C90D000A1F529
:101F3000803191FBF0F1E2836162BDE7216A626A60
:101F40004FF6FE7E8BE7628DE2834FF00201217730
:101F50009AFBF2F1C9106162AEE7BDE8F88F9C45CB
:101F60002277C0D91A605A609A60DA6010339C45B3
:101F7000F8D8B8E772B6038DC383002202625BB95A
:101F8000438DC3834FF4803292FBF3F3DB100222C4
:101F90004362027762B6704701234262037762B6FA
:101FA000704700BF10B5044603F0A0F8204610BDEE
:101FB00002480349034A06F0DDBE00BF74CBFF1F91
:101FC000A51F0000DCB8FF1F38B5074D074C0848B7
:101FD0002946224606F0CEFE294622460548BDE89F
:101FE000384006F0C7BE00BFA51F0000DCB8FF1FC9
:101FF0007CCBFF1F84CBFF1F02480349034A06F036
:10200000B9BE00BF8CCBFF1FA51F0000DCB8FF1FAF
:1020100002480349034A06F0ADBE00BF94CBFF1F40
:10202000A51F0000DCB8FF1F2DE9F0474FF0000AA4
:1020300080460746D14640465146B9F1000F4FD081
:1020400002F03EFFF0B1BC69B4F5803F09F1040332
:1020500000F1040509F5827E28D055F8042B34FBE5
:1020600002F134FB12F201F30F0102F30F02C1EA95
:1020700002421E6892FA16F643F8046B9E45ECD8AD
:1020800002F0E0FE0AF1010ABAF1040F07F10407B9
:10209000D1D1B9F1000F3FD040464946002202F0AD
:1020A000F5FE4846BDE8F04702F0CCBE09F10C054C
:1020B00000F10C0455F8082C54F8081C92FA11F29F
:1020C00045F8082C5A6854F8041C92FA11F25A6028
:1020D00008339E4505F1080504F10804EAD8CFE766
:1020E00002F0FAFE81460028CCD0B969B1F5803FF4
:1020F000C8D0031D00F582741A6831FB02F031FB71
:1021000012F200F30F0002F30F02C0EA024243F89A
:10211000042B9C42F0D8B5E7BDE8F08710B500214C
:1021200002F0CEFE70B172B60A4B1A6872B10A495B
:102130000C6844B11C60086062B61046BDE81040EF
:1021400002F080BE10BD086062B610BD186062B6B5
:1021500010BD00BFACCBFF1F9CCBFF1F38B5194B88
:1021600019491A68194C12681B79194D0B70A24253
:1021700028683ABF224602F58074A4F58072C8B17F
:10218000011D31F9023B03F5FF437F331B1122F898
:10219000023B9442F5D802F055FE0E4B00211A681E
:1021A0002A6019600C4B1B781BB10C4B4FF080421E
:1021B0001A6038BD40F2FF7322F8023B9442FBD80C
:1021C000F0E700BFA0CBFF1F1F800040C8B3FF1F78
:1021D000ACCBFF1F9CCBFF1FA8CBFF1F08E200E08A
:1021E0002DE9F0414E484F4D012102F00BFF4E4BBF
:1021F0004E4A1868802140F4805018600024117005
:102200002C8008340120A4B202F0FEFCB4F5006F6B
:10221000F6D1474B1B685B0208D5464B1A6848F657
:10222000A273134048F6A272934268D0404A414BD1
:102230001068DFF824E1404E4049414C40F48008EA
:102240004FF0010C40F24F5748F6A37540F20110D1
:10225000C2F80080CEF800C037601D601C600860C6
:102260002F4D38482B6829791A6818602D4A18694B
:102270001A6101F180414FF48072D88ADA8201F547
:102280000431D88BDA830226002201244FF0FF307C
:102290006FF0010C4FF0060EB02783F80DC01E71D1
:1022A000B3F81CC01E725A715A729A72DA721A739B
:1022B0001A755A751A765A769A76DA769C71DC71A6
:1022C000A3F81CE09873D8730A700F7002F03EFEFA
:1022D0002B791D4A1D4E10705A11920002F1604276
:1022E0001B49337003F01F0702F5614203F1100030
:1022F000184D41F82050BC401460BDE8F0810E4BF1
:102300001A6840F24F539A4290D1134B1B68012B2D
:102310008CD10A4B1A6840F201139A4286D19FE78A
:10232000A0CBFF1F00C00C402C80044021C00C40FB
:102330003C800440006003400460034010600340A0
:10234000A28F0100C8B2FF1FA8CBFF1F1B80004057
:1023500000B6FF1F5D2100000C60034002480349E6
:10236000034A06F007BD00BFA0CBFF1FA51F00005A
:10237000DCB8FF1F02480349034A06F0FBBC00BF5C
:10238000B0CBFF1FA51F0000DCB8FF1F02480349A8
:10239000034A06F0EFBC00BFB8CBFF1FA51F00002B
:1023A000DCB8FF1F02480349034A06F0E3BC00BF44
:1023B000C0CBFF1FA51F0000DCB8FF1F0248034968
:1023C000034A06F0D7BC00BFC8CBFF1FA51F000003
:1023D000DCB8FF1F02480349034A06F0CBBC00BF2C
:1023E000D0CBFF1FA51F0000DCB8FF1F2DE9F84F61
:1023F000B0F9183004460BB9BDE8F88F02F0D8FCEC
:1024000005460028F8D0B4F92C30061D072B32D829
:10241000DFE813F064008C009D00AD000800CA00E6
:10242000DB004B00276B002F3AD0E36900F5827C7C
:102430003146DA0D02F1010EC3F3CF105FFA8EFEC2
:1024400037F912A037F91E90B4F91880D4F828E0B3
:10245000C0F57F42FF3202FB0AF200FB09200014A4
:1024600008FB00F0C01321F8020B7344614523F010
:102470000043DED1E361E38D6BB105F5827100E0CD
:10248000E38DB6F9002002FA83F303F30F0326F875
:10249000023BB142F4D820462946002202F0F6FC65
:1024A0002846BDE8F84F02F0CDBCE36900F582781C
:1024B000374607E0A08CA26A27F8020B1344474571
:1024C000E361D8D0A26A9A42F4D9B4F9181048420C
:1024D00002F0A0FE80B2E369A084ECE7DFF810C14F
:1024E00000F582783146E369B4F91890A06A4FEAA2
:1024F000D35EC3F3CF170EF1010BC7F57F423CF952
:102500001EA03CF91BE0FF320AFB02F207FB0E277C
:102510003F1409FB07F7FF1321F8027BC31848BFDC
:1025200023F000434145E361DDD1A4E7E36900F511
:10253000827E3246208BA16AC3F3CF3717FB00F0AF
:10254000C01322F8020B72450B44F3D192E7E36902
:10255000811D8022208B5F0048BF404221F8020C81
:10256000A06A013A01F102010344F3D182E7E36971
:1025700000F582773246208B002BB8BF40424FEAED
:102580008301B8BF80B213F0804F18BF494200B238
:10259000490C00FB01F1C91322F8021BA16ABA42DF
:1025A00003EB4103E7D165E7E369276A811D8022D8
:1025B000208BBB4238BF404221F8020CA06A013A8E
:1025C00001F102010344F3D154E7E36900F5827E8F
:1025D0003246208BA16AC3F3CF3717FB00F0C0133C
:1025E00022F8020B7245C1EB0303F2D142E700BFB0
:1025F00060B80000184A194B19491A48F0B4176816
:10260000194E1A4D1A4C47F4805717601E60DD6052
:102610001C6118600B78D90718D402F53F521C32A0
:102620004FF4107111609A0754BF124A124A5B07A7
:102630004FF4007154BF114B114B116054BF4FF454
:1026400010724FF400721A60F0BC70470D4A4FF4DC
:1026500000711160E7E700BF3C80044000C0024009
:1026600004CFFF1F00001F8001401F000110003831
:10267000011000781CB004400CC0044014B00440A9
:1026800004C0044008C0044010B582B002AB026828
:1026900003F8011D546819460122A04702B010BD7D
:1026A000C06938B18169C26847F6FF73881A9842D9
:1026B00028BF1846704700BF38B5C369044663B1E8
:1026C00000251D7192B2C06901F0A4F9E269127986
:1026D00012B101232846237138BD01222271184608
:1026E00038BD00BF00B5C06983B030B10DF107013E
:1026F000012200F023FF012804D04FF0FF3003B087
:102700005DF804FB9DF8070003B05DF804FB00BF13
:1027100010B50446C06982B040B10DF10701012235
:1027200000F00CFF012803D04FF0FF3002B010BDC5
:10273000E0699DF80740C168013900F0B1FF20460B
:1027400002B010BDC06908B100F0DCBF704700BF27
:102750002DE9F04104464FF47A731348A360002337
:1027600020602371237324200D46904606F044FB1D
:10277000E061B0B1074605F1200E28686968AA68D3
:10278000EB683E460FC6103575453746F5D12868CB
:102790003060414604F10D000C2207F01DFA0023C1
:1027A00063762046BDE8F081B0BA00004FF47A723B
:1027B000044982600022016002710273C2614273A7
:1027C000704700BFB0BA0000014B0360704700BF04
:1027D000B0BA000010B50446C06930B100F03CFE4C
:1027E000E06906F011FB0023E36110BD30B58BB04A
:1027F00000240A460A4D8DF808400146012301A82D
:102800008DF80A40019501F0C5F8041B18BF01249A
:1028100014B101A800F020FE20460BB030BD00BF6F
:10282000D0BA000008B50AB9012008BD01F0DAF8F5
:10283000003018BF012008BD2DE9F0030B68C45C0F
:102840002F2C08BF01331F46C61803F10C08C3EB39
:10285000020C3546C7EB03092C782F2C06F1010634
:102860000AD04CB101330CEB0305434505F8014C8C
:10287000EFD1C5184FF00C09002402F809402A785E
:102880002F2A04BF0133C5180B602878003018BF09
:102890000120BDE8F00370472DE9F04F99B088465C
:1028A000274D069500218DF81C10834692469946C7
:1028B00044468DF81E108DF840108DF8421001919D
:1028C0000F9506AE07E0204600F0C6FD002D30D083
:1028D000234634461E4601A902AA5846FFF7ACFF1C
:1028E00080F00102D2B202A94B4605462046D047ED
:1028F00007462146304602AA012347B185B101F0BF
:1029000049F844450546DED198B10FACE0E74445AF
:102910000FD0204600F0A0FD384619B0BDE8F08F7A
:1029200044450AD0204600F097FD012019B0BDE8CB
:10293000F08F002019B0BDE8F08F0120EDE700BF57
:10294000D0BA000038B50A460121044600F090FADA
:1029500008B9002038BD251D28462146012201F076
:10296000EBFA40B104F12C00294600F0BFFD003025
:1029700018BF012038BD02462146284601F0DCFA86
:102980000028EFD1002038BD2DE9F04F99B04FF06D
:10299000000A3B4E8DF81CA00546043106A893465C
:1029A000019304468DF81EA08DF840A08DF842A03A
:1029B00006960F96174600F099FD0DF13C082F2161
:1029C000384606F0A7FFC7EB000903465FFA89F90E
:1029D000394602A823B33B782F2B1FD0B9F10C0F37
:1029E00028BF4FF00C094A4607F0F6F818AB4B44E5
:1029F000404603F858AC00F02FFD01234046214625
:102A000002AA00F0C7FF03462046002B30D000F09A
:102A100023FD23464F4444469846D0E70137CEE78E
:102A2000A3690093019B206994F804A094F8059091
:102A300094F80680D4F808C0E268217DCBEB070B40
:102A4000C3F800B0E769009B246A286128462E601D
:102A500085F804A085F8059085F80680C5F808C0BB
:102A6000EA602975AB61EF612C6219B0BDE8F08FA7
:102A700028462B712E60AB7119B0BDE8F08F00BFF6
:102A8000D0BA00002DE9F04F9DB080461D4601A848
:102A90006B461446FFF778FF009AA15C14440029A6
:102AA00044D09DF80A30374E0A9600218DF82C103C
:102AB0008DF82E10002B32D00AA801A922462B46F1
:102AC00000F068FF58B301A800F0C6FC15F0060F2F
:102AD00053D1109B9DF82CB09DF82DA09DF82EC0D1
:102AE0000D9D9DF83CE0119F139622460C9E0E9C76
:102AF00019934046129B8DF850B013A98DF851A040
:102B00008DF852C01596169517948DF860E01A97B7
:102B10001B93FFF71DFE40461DB0BDE8F08F4046F9
:102B2000FFF744FE40461DB0BDE8F08F9DF8081049
:102B3000049E144B9DF809909DF80AC0039F059DC3
:102B40009DF818E0079C8DF8501013931696089B7B
:102B5000099E0D4A8DF85190404613A98DF852C038
:102B6000159717958DF860E019941A931B96FFF747
:102B7000EFFD40461DB0BDE8F08F0AA8109900F0A7
:102B80008FFDA6E7D0BA00005CB8000010B400F1D9
:102B90002C04044A0846002321465DF8044BFFF745
:102BA0007BBE00BFED27000010B400F12C04044AE6
:102BB0000846002321465DF8044BFFF76DBE00BFB9
:102BC00025280000064B074ADA62022100225960DC
:102BD0009A7083F8242083F8302083F832207047DD
:102BE000F4CBFF1FD0BA000005281DD8DFE800F0A5
:102BF00003030D1217080F4B0F4A1A60FFF7FABCB8
:102C00000C4B0E4A1A60FFF7F5BC0A4B0C4A1A60CF
:102C1000FFF7F0BC074B0B4A1A60FFF7EBBC054B04
:102C2000094A1A60FFF7E6BC024B084A1A60FFF730
:102C3000E1BC00BF48CCFF1F000001B804300038E1
:102C40000110003803200038010002380650013816
:102C500008B50121007801F09BFF0E4B1A7802B9EC
:102C600008BD0D4A127800211970002AF8D0D0074B
:102C700003D50A490A4B09681960910703D507492A
:102C8000084B496819605307EAD5044A064B926815
:102C90001A6008BD4CCCFF1FF0CBFF1FE4CBFF1F19
:102CA00000E100E004E100E008E100E070B4204B46
:102CB0001A7822B10078002170BC01F069BF1D496B
:102CC0001D4A0C78126801251D7004B372B60B788A
:102CD000DC0707D519491A4C0E682468194D344091
:102CE0002C600C60990707D5174C15492668496870
:102CF000144D3140216069605B0707D51349104BC3
:102D00000D689B680F4C2B400B60A36062B6104BA4
:102D1000D9689142CED00F4C1C600F49DA6042F066
:102D200080441C6119600078002170BC01F030BF44
:102D30004CCCFF1FF0CBFF1F48CCFF1F80E100E011
:102D4000D8CBFF1FE4CBFF1F84E100E088E100E067
:102D500000C0024001401F0000001F80F0B4134873
:102D6000134A036882B016460093009F4FF0004557
:102D7000BFB2FF24136843F480631360D5625463C9
:102D8000D36A002BFCDAB36BDBB2FF2B0AD00368EB
:102D90000193019B9BB2DB1B8B42EBDB002002B05B
:102DA000F0BC7047012002B0F0BC7047D0CEFF1FCE
:102DB00000C002402DE9F0410F464FF49671904655
:102DC0000546FFF7CBFF294B18684FF0004140F450
:102DD000806047F040021860D96218465A63C36A9F
:102DE000002BFCDA214C18204FF00042266828FA0C
:102DF00000F346F48066DBB22660E2626363E36A56
:102E0000002BFCDA083810F1080FEFD167B3082F58
:102E10000CBF8721FF21154B1A684FF0004042F488
:102E200080621A60D8621A465963D36A002BFCDAB2
:102E30000E4A002716464FF00044FF21136843F462
:102E400080631360D4625163D36A002BFCDAB36BE6
:102E5000D8B21B06687001D4BDE8F0810137B7F520
:102E6000807FEBD1BDE8F0819521D4E700C002401E
:102E70002DE9F0430023904E027085B083703368D3
:102E800001930446884610460121019F01F080FE0F
:102E90002078012101F090FE2078012101F078FED8
:102EA000864B1A6842F480521A600620FFF79CFE97
:102EB000834B844A1D781268BFB215B372B6197875
:102EC000CD070BD58048814DD0F800C02D68DFF8C4
:102ED00010E20CEA0505CEF80050056088070BD516
:102EE0007B4D7A48D5F800C04068DFF8F4E10CEA81
:102EF00000002860CEF804004D0700F19A8062B609
:102F00001D78744BD968914207D073481860734993
:102F1000DA6042F08040186119606E4A4FF00A0989
:102F20004FF00040FF21136843F480631360D062C8
:102F30005163D36A002BFCDA09F1FF3313F0FF0968
:102F4000F1D18DB1E80703D5654A664B12681A6066
:102F5000A90703D5624A644B52681A606A0703D511
:102F60005F4A624B92681A602046FFF79FFE07E0B7
:102F700033680293029BDB1B9BB2B3F5FA6F51D807
:102F800000210A462046FFF715FF0128054660701C
:102F9000EED1204608214FF4D572FFF70BFF43070F
:102FA00026D5A570002507E033680393039BDB1B40
:102FB0009BB2B3F5FA6F35D8372100222046FFF7D0
:102FC000F9FE204629212A46FFF7F4FE607000280A
:102FD000EAD1A378022B3CD02046FFF739FE4046C9
:102FE000FFF702FE4FF00109484605B0BDE8F08347
:102FF000384A042094464FF0004EFF25136843F4EE
:1030000080631360C2F82CE05563D36A002BFCDAAE
:10301000DCF83810431EC9B213F0FF006170EDD127
:10302000AA2911D02046FFF713FE484605B0BDE897
:10303000F0832F482549D0F800E08968284D0EEA32
:1030400001010160A9605AE70223A3704FF0804597
:10305000B2E702463A212046FFF7ACFE0028E1D154
:103060001C4B19684FF0004041F48061FF22196049
:10307000D86219465A63CB6A164A002BFBDA936B67
:10308000144A03F0C003C02B04BF0323A370032121
:1030900016464FF00045FF20136843F48063136029
:1030A000D5625063D36A002BFCDA013911F0FF01BD
:1030B000B36BF1D190E700BFD0CEFF1F3C8004403E
:1030C000F0CBFF1F48CCFF1F80E100E0D8CBFF1FF3
:1030D00084E100E000C0024001401F0000001F80AA
:1030E000E4CBFF1F00E100E004E100E008E100E0C4
:1030F00088E100E0F0B41549154A0B6882B0164625
:103100000093009F4FF00045BFB2FF24136843F4C3
:1031100080631360D5625463D36A002BFCDAB36B0F
:10312000DBB2FF2B43700BD10B680193019B9BB269
:10313000DB1BB3F5967FE9DD002002B0F0BC7047E1
:10314000FE3B5842584102B0F0BC7047D0CEFF1F42
:1031500000C00240F8B58378032B0D46044618BF23
:103160004D021646FFF7A2FD20462A461121FFF721
:1031700021FE18B92046FFF7BDFF20B92046FFF712
:1031800067FD0020F8BD214B214A224919601746EE
:103190005A6319465A631D465A6306F5FD7EB01CF4
:1031A00006F5FE72CB6A13F0F00FFBD06F63AB6BCA
:1031B00000F8013CC3F3072300F8023C02309042C0
:1031C000F0D106F50076B6450ED2104A714610468B
:1031D000D36A13F0F00FFBD0836B4B70C3F307235C
:1031E0000B7002318E42F3D8084B0A49084A196025
:1031F00019465A63CB6A054A13F0F00FFAD02046FD
:10320000936BFFF725FD0120F8BD00BF00C0024011
:10321000FFFF009000041F80F0B42F4E336843F48A
:1032200080654FF0004335603446F3621D4671639C
:10323000334602F50077E16A0029FCDA1E6811784E
:1032400046F480661E60DD625963E16A0029FCDA9B
:103250001E685178023246F48066BA421E60DD6212
:103260005963E8D11C49CA6A1B4B002AFBDA1A6869
:103270004FF0004442F48062FF211A60DC621A467B
:103280005963D36A1449002BFBDA0C684FF00042F3
:1032900044F48064FF230C60CA620C464B63E36A0B
:1032A0000D4A002BFBDA11684FF0004441F48061B5
:1032B000FF231160D46211465363CB6A064A002B88
:1032C000FBDA936BDBB203F01F024370531F5842CB
:1032D0005841F0BC704700BF00C0024070B50D46B9
:1032E0000446164661B18378032B18BF4D02FFF7E1
:1032F000DDFC2A4620461821FFF75CFD054620B17B
:103300002046FFF7A5FC002070BD32462046FE2176
:10331000FFF782FF0028F3D020464FF41671FFF725
:103320001DFD0028ECD02A4620460D21FFF742FD66
:103330000028E5D10B4B19684FF0004041F4806143
:10334000FF221960D86219465A63CB6A054A002BDE
:10335000FBDA936B13F0FF0FD2D12046FFF778FC16
:10336000012070BD00C00240014B024A1A60704744
:1033700048CCFF1F0320003838B590F90530002BEA
:10338000044603DBBDE8384000F036BC006901218B
:1033900000F05CFCF8B1A379257D0F4A012B02EB0C
:1033A000451598BFA3690D4A98BFEB61E3691268A0
:1033B0006B831B0CAB8232B105F1180005F11601CD
:1033C00090472B8B6B82637903F07F036371BDE8B9
:1033D000384000F011BC38BD5CCCFF1F50CCFF1F43
:1033E00010B500F1080204460121006A00F014FD46
:1033F00050B1E3693BB96279A368E36162F07F038E
:103400006371012010BD012010BD00BF70B50646DC
:10341000FFF7E6FF98B1336AB1681A7C1C795D69E1
:10342000023991407CB1013D0D4402E014F0FF04EB
:1034300007D0601900F02EFC013C0028F6D10020D6
:1034400070BD336A1A7CB3694FF4007101FA02F25D
:103450001344B361012070BD10B5837904460BB9E4
:10346000002010BDFFF788FF0028F9D00023A371CA
:10347000012010BD70B400232022CA5401330B2B4D
:10348000FBD101380025072610F8014F2CB32E2C54
:103490001ED0154A01E0A34217D012F8013F002BBD
:1034A000F9D1AE421ED3A4F121025D2A1AD8A4F1AB
:1034B0006102192A05F1010398BF203C0D44DBB2DB
:1034C00098BFE4B22C701D46DEE7002070BC704748
:1034D0000A2EFAD008250A26D6E70878203818BF21
:1034E0000120F3E71846F1E7D7BA000038B5837931
:1034F00004460D462BB991F82020102A03D0202A2B
:1035000010D0002038BD0222C36182714B8C5B0158
:10351000836100230120607123752562A360E3604D
:10352000236138BD03238371496AC16104F1180224
:10353000284600F0FFFB0028EBD1E2E72DE9F04F31
:1035400083B08379019205468A4613B14279D20746
:1035500005D44FF6FF7000B203B0BDE8F08F81696B
:10356000C2680198891A884258D8019800286FD0FB
:10357000022BDFF8EC80394FDFF8E890019EC2F3B0
:10358000080446D0286A90F804B00BF1FF3B0BEA20
:10359000522B5FFA8BFB002C58D1BBF1000F55D199
:1035A000002A4BD1EB69AB60027C4169023B93403E
:1035B0008B440BEB0300C4F5007B6B795E45CCBFFD
:1035C0001FFA8BFBB3465B062BD4BBF5007F28D0DC
:1035D000002100F03BFB0028BBD004EB080000EB0F
:1035E0000B01884209D00346544613F8012B04F816
:1035F000012B8B42F9D11B1A9A44EA68CBEB0606E1
:103600005A44B6B2EA601EB3AB79022BC2F3080487
:10361000B8D12B6A586A00EB5220CCE789B20191ED
:10362000A3E73B689842D3D001465246D9F8000040
:10363000FFF790FD00288CD0DA44DEE72A4652F8E6
:10364000081F00F043FB002883D0286AAB68ABE773
:10365000019B98B200B203B0BDE8F08FD8B9FF1F4C
:103660005CCCFF1F58CCFF1F30B58379012B83B092
:10367000044607D90DF107010122C568FFF75EFF77
:10368000012802D0002003B030BDE368034A05F4EE
:10369000F0701F331044E36003B030BD5CCCFF1FFB
:1036A000F8B5044680790F4600B3A3698B421ED358
:1036B000022818D00FB3236AE2681B7C511E09331D
:1036C0007D1ED940DD40A94213D9E369A36004F10E
:1036D000080605E0206AA16800F0F8FA013D80B113
:1036E0003246002DF6D1E7600120F8BDF8BD00207C
:1036F000F8BD002AE9D06D1AE9E7A760E76001206C
:10370000F8BDF8BD83790BB1FFF736BE1846704798
:10371000F0B58379012B83B004460D4603D0002316
:10372000184603B0F0BD427902F0020202F0FF0633
:1037300092B182698A42F2D3002AF1D0E668FFF79B
:10374000AFFF0028EBD0206A55B9E16900F0CCFB4F
:103750000028E4D0E56115E03346184603B0F0BD1B
:10376000A16801AA00F0B2FA0028D8D0206A174B4D
:1037700090F8207001994FF6F872102F08BF134689
:10378000994215D36279A379A56162F07F026271D3
:10379000002BC4D02046FFF7EFFD0028BFD0204605
:1037A000B54234BF29463146FFF77AFF0346B7E7F3
:1037B00000F09AFB0028B2D0206AA1686FF0704236
:1037C00000F0E8FA0028DDD1A9E700BFF8FFFF0FFD
:1037D00038B51D4B03EB41130446D87A10F0110F96
:1037E000154602D012F0420F1CD1184A21751268FA
:1037F0002261998A5A8B42EA0141E161D87A10F03C
:1038000018000DD1DB69A3610123A37105F00F033B
:10381000002163716B06A160E1600FD4012038BD07
:10382000102801D0002038BD206A04F1180200F0F1
:1038300081FA0028F6D00423A371E7E72046BDE80B
:103840003840FFF765BF00BF5CCCFF1FD8B9FF1F32
:103850002DE9F04F85B080460E46104601A99A46E4
:10386000FFF708FE002866D00023326AC8F820203F
:1038700019461F46B360F360DFF814910AE0E52DA6
:1038800001A821464FF00B0212D005F061FD00287F
:1038900063D0F168B3698B4249D93046C1F3431B09
:1038A000FFF7E2FE0446002845D00578002DE6D15A
:1038B00037B9D9F8003088F814B0C8F81030257836
:1038C0000127002DE5D10AF01203122B33D1D8F8CD
:1038D0001000012100F0BAF968B398F814402A4B9F
:1038E00003EB441400212022204605F0C5FD01AB66
:1038F00003CB264A1D8812689B7820606160258171
:10390000A372002A33D004F1100004F10E01904795
:10391000238AE28963822383E28200F06DF950B149
:103920004046524698F81410FFF752FF04E00AF0A0
:103930001203122B03D0002005B0BDE8F08F002F3A
:10394000C5D1B379022BF6D03046FFF75FFD0028D2
:10395000F1D00D4C88F81470C4E70AF03003302B16
:10396000E9D0404659465246FFF732FFE4E70823C4
:1039700021202821A273E373207461744FF4006244
:1039800042F62103C6E700BF5CCCFF1F50CCFF1FEF
:10399000D8B9FF1F10B484791CB100205DF8044B26
:1039A00070475DF8044BFFF753BF00BF10B500210F
:1039B0000446FFF7ADFE08B9002010BD20690121C3
:1039C00000F044F90028F7D0217D054A4901E5209F
:1039D00088540023A371BDE8104000F00DB900BF6A
:1039E0005CCCFF1F30B58BB000240A46084D8DF823
:1039F00008400146022301A88DF80A400195FFF70F
:103A000027FF10B101A8FFF7D1FF0BB030BD00BFF9
:103A1000D0BA00002DE9F04F837985B0012B05461F
:103A20008A46019205D001232B71002005B0BDE824
:103A3000F08F43799907F6D55B0700F19680EC6823
:103A4000019B002B00F09C805F4FDFF890819B462C
:103A500035E0002C3DD1A96800296BD1EA69002A24
:103A60007AD0AA60017C4069C4F50076B6B2023A09
:103A70008A4009EB00035E4503EB02012BD8B6F543
:103A8000007F29D1D8F800308B4204BF4FF0FF33BC
:103A9000C8F800304D4B52461868FFF71FFC00284D
:103AA000C1D00AF5007A4FF40074EB68C6EB0B0B3B
:103AB0001C441FFA8BFBEC60BBF1000F60D0286A3E
:103AC0000379013B03EA542313F0FF09C4F308040C
:103AD000BFD0AA68C6E75E461CB9EA68AB699A42DD
:103AE00015D20846012100F0B1F800289BD0E0195A
:103AF000811988421CD00346544614F8012B03F860
:103B0000012B8B42F9D11B1A9A443446CDE7009120
:103B100000F072F80099002885D02D4BC8F80010ED
:103B20001A78E019811942F0010288421A70E2D134
:103B30003446BAE703AA00F0C9F800283FF476AF8C
:103B4000286A244B90F82060039A4FF6F871102EE3
:103B500018BF19468A4284D32846FFF741FC002843
:103B60003FF461AF286AAA687CE7EC68A9698C42D7
:103B70003FF466AFFFF794FD00283FF454AF5EE7D3
:103B8000AB69A34214D26B79AC6143F080036B71D3
:103B90001A0709D5AB79002B3FF445AF2846FFF74C
:103BA000EBFB00283FF43FAF019805B0BDE8F08F74
:103BB000094B1B6833B1019B23B16B7943F0800340
:103BC0006B71E5E76B79E3E75CCCFF1F58CCFF1F17
:103BD0005CCEFF1FF8FFFF0F50CCFF1FD8B9FF1FAF
:103BE00000B583B002AB012203F8011D1946FFF7AF
:103BF00011FF03B05DF804FB70B50F4C23780BB9CF
:103C0000012070BD0D4D0E4B286819680D4AFFF755
:103C100065FB0028F5D00C4E316819B900232370DC
:103C2000012070BD2868074AFFF758FB0028E8D03C
:103C300000233360F2E700BF5CCEFF1F58CCFF1FAC
:103C4000D8B9FF1F5CCCFF1F54CCFF1F70B50D4DC2
:103C50002B68834204460E460DD0FFF7CDFF08B90E
:103C6000002070BD084B094A18682146FFF772FA18
:103C70000028F5D02C60064B1A7816431E700120E0
:103C800070BD00BFD8B9FF1F58CCFF1F5CCCFF1F11
:103C90005CCEFF1F10B50446FFF7AEFF78B1084BAE
:103CA000002103F5007203F8011F9342FBD1054B7D
:103CB00005491A780C6042F001021A70012010BD0B
:103CC0005BCCFF1F5CCEFF1FD8B9FF1FC368013359
:103CD0008B4270B504460D4616461DD390F8203031
:103CE000124AC1691268102B0CBF280AE80908445F
:103CF000904205D00021FFF7A9FF68B194F8203069
:103D0000102B0BD005F07F05094B53F8253023F01D
:103D100070433360012070BD002070BDEDB2044BD4
:103D200033F815303360012070BD00BFD8B9FF1FD4
:103D30005CCCFF1F2DE9F04782B002ADDFF8508068
:103D400045F8041D044691464FF0000A4FF40077F1
:103D50004FF6F8760CE094F82030227C0199102B75
:103D600014BF4346334607FA02F29942924408D2FE
:103D700020462A46FFF7AAFF0028ECD102B0BDE892
:103D8000F0870120C9F800A002B0BDE8F08700BFAD
:103D9000F8FFFF0F0129F8B50C46054617462CD948
:103DA000C3680133994228D890F82030164AC16977
:103DB0001268102B0CBF260AE6090E44964206D064
:103DC00030460021FFF742FFC0B195F82030102B9C
:103DD00015D004F07F040D4B43F824700C4B2A7E61
:103DE0001978012A41F0010188BFAA68197082BFC1
:103DF000084BB6181E600120F8BD0020F8BDE4B2E3
:103E0000024B23F81470E9E7D8B9FF1F5CCCFF1F01
:103E10005CCEFF1F54CCFF1F2DE9F04F146883B018
:103E200091468346884664B301344FF0000ADBF8BC
:103E30000C305F1C0BB32646002506E01C461E46D0
:103E4000DBF80C300135AB4217D9A74238BF02244A
:103E50002146584601AA38BF2646FFF737FF631CA4
:103E6000991B50B1019A002AE8D1414510D01C4657
:103E7000DBF80C300135AB42E7D8002003B0BDE8D9
:103E8000F08F4B1ED3F1000A04685AEB030ACEE709
:103E9000584621466FF07042FFF77CFF0028ECD0B7
:103EA000B44203D80BE0B54209D92C46651E224620
:103EB00029465846FFF76EFF0028F4D1DDE7D9F810
:103EC000001049B9C9F80060BAF1000F02D00136FC
:103ED000CBF800600120D1E758463246FFF75AFF81
:103EE0000028EFD1C9E700BFF0B5022383B0054633
:103EF000104F03600C464FF6F8760CE02846FFF7AB
:103F000049FF88B195F82030019C102B14BF3B4627
:103F100033469C420BD2214601AA2846FFF7D6FE23
:103F2000214600220028E9D1002003B0F0BD012085
:103F300003B0F0BDF8FFFF0FF8B53C4B1446054643
:103F40001960CAB1042A01D90020F8BD0020014639
:103F5000FFF77CFE0028F7D0354B03EB041404F583
:103F6000D474A3795B06EFD1D4F81230632BEBD96C
:103F7000D4F80E40002CE7D020460021FFF766FE63
:103F80000028E1D02A4AB2F80B30B3F5007FDBD12C
:103F9000117C0029D8D0D389002BD5D0567B002E98
:103FA000D2D0002329762E712B74012703E0092932
:103FB0000B462974C8D007FA03F0B04203F101019F
:103FC000F5D1D08A1A4900B9486AD189A86021443C
:103FD000E961B2F81160177C6E84760107FB00106E
:103FE00006F2FF1100EB512169616862B2F813001B
:103FF0000F4E00B9306A611A014421FA03F340F60A
:10400000F4718B42EB600BD94FF6F4718B4285BF94
:10401000D36A6B621023202385F820300120F8BD7D
:104020000C2385F820300120F8BD00BF58CCFF1FBD
:104030005CCCFF1F10B40E4B1B7813B90D4B1B78D3
:104040008BB10D4A1378202B07D80C4C581C1070DC
:10405000E15401205DF8044B7047012303715DF8C2
:10406000044B0020704718465DF8044B704700BFB2
:10407000C6CEFF1F88CEFF1FC7CEFF1F64CEFF1F17
:10408000704700BF024A034B10781B78C01A704774
:10409000C5CEFF1FC4CEFF1F064A07491378097813
:1040A000994204D90548591CC05C117070474FF003
:1040B000FF307047C4CEFF1FC5CEFF1F8CCEFF1F41
:1040C000054B064A1B7812789A4286BF044AD05C98
:1040D0004FF0FF30704700BFC4CEFF1FC5CEFF1F9B
:1040E0008CCEFF1F70B50D4B1B78144613B90C4BCB
:1040F0001B788BB10B4E3578C5F12103A34202D258
:1041000001221C460271084822462844254400F03A
:10411000D3F83570204670BD184670BDC6CEFF1F5F
:1041200088CEFF1FC7CEFF1F64CEFF1F10B5124BF6
:10413000DB7803F0200303F0FF045BB10F4A137830
:104140000133DBB2012B137010D91220BDE81040EF
:1041500000F0C8BC122000F0C5FC094B1B684BB135
:104160000849094A0C701078984710BD074B1B7816
:10417000002BEAD010BD00BF00600640B0CEFF1F8C
:1041800060CEFF1FC4CEFF1FC5CEFF1F88CEFF1F0E
:1041900038B5384CE378DBB2D80623D5102259065F
:1041A000E2701ED503F0040303F0FF02002B33D0AE
:1041B000314B32491A68324C00230B702370002AAD
:1041C0003BD090472378002B37D02E4B1D78294BBE
:1041D0002D4AD020987001211D71264B11700222AA
:1041E000DA7038BD5A06DDD4A27802F0100202F06F
:1041F000FF0042B313F001031BD1234920480A7882
:104200000078904281BF1F4B501C9B5C087023714B
:10421000184BD0229A7008E01C48164B17490270C0
:104220000120C02208709A701B79124B0222DA70AA
:1042300038BDC023A3702379F7E7124A0025012374
:1042400015702370C3E7124B124918700322122015
:1042500000F0C6FB0D4A217913781F2BC9B2E4D8B0
:10426000064800780028E0D00B4C581CE154107030
:10427000DBE700BF00600640ACCEFF1F5DCEFF1F36
:10428000C7CEFF1F64CEFF1FC8CEFF1FC5CEFF1FC6
:10429000B0CEFF1F2D4100008CCEFF1F044B054AFE
:1042A0001A604FF47A71002299601A711A7370477C
:1042B000B4CEFF1FF0BA0000844641EA000313F0B9
:1042C00003036DD1403A41D351F8043B40F8043B1D
:1042D00051F8043B40F8043B51F8043B40F8043BE0
:1042E00051F8043B40F8043B51F8043B40F8043BD0
:1042F00051F8043B40F8043B51F8043B40F8043BC0
:1043000051F8043B40F8043B51F8043B40F8043BAF
:1043100051F8043B40F8043B51F8043B40F8043B9F
:1043200051F8043B40F8043B51F8043B40F8043B8F
:1043300051F8043B40F8043B51F8043B40F8043B7F
:1043400051F8043B40F8043B403ABDD2303211D31F
:1043500051F8043B40F8043B51F8043B40F8043B5F
:1043600051F8043B40F8043B51F8043B40F8043B4F
:10437000103AEDD20C3205D351F8043B40F8043B1F
:10438000043AF9D2043208D0D2071CBF11F8013B1D
:1043900000F8013B01D30B8803806046704700BFE3
:1043A000082A13D38B078DD010F003038AD0C3F1F2
:1043B0000403D21ADB071CBF11F8013B00F8013BD4
:1043C00080D331F8023B20F8023B7BE7043AD9D393
:1043D000013A11F8013B00F8013BF9D20B78037068
:1043E0004B7843708B788370604670472DE9F00FEF
:1043F0003A4A3B4913681B06FCD40B6813F0800350
:10440000F8D172B6374A1178002963D03648374C54
:104410003749D4F800A0D0F800B0D1F80090D4F813
:104420000C80D0F80CC0CF68324E334DDA44D14402
:10443000C844C4446744C7F34E0747F40047376095
:10444000D5F800A0D0F820B0D1F82090D4F82C8076
:10445000D0F82CC0CF6ADA44D144C844C44467447D
:1044600005F5FF25C7F34E0700F5002005F5FC65AF
:1044700047F40047776001F500210C34D5F800A01F
:10448000D0F800B0D1F8009004F50024DA44D4F854
:104490000080D0F80CC0CF68D144C844C4446744FD
:1044A00006F50026C7F34E0747F4004737602F6A2A
:1044B000D0F820C00E6A256AC46AC86A67443E44C0
:1044C00035442C442044C0F34E0040F4004041F8F1
:1044D000100C137062B6BDE8F00F704724B00340B3
:1044E00024B00B40CACEFF1F3CB0034038B003409D
:1044F00040B003402CB0034058B0034030B42948CA
:10450000294A2A4B2A4D6024E121047011701B783E
:10451000284C082B30D00A2B2748284937D00C2BA1
:104520000CBF35225D2212232A60236002600B60DB
:10453000234B24491B78244ABBB101230B60136031
:10454000224B23491B78234A012B26D9042B0FD950
:10455000082B1ED9102B94BF862387230B60136072
:104560001D4B01221A7030BC70470B601360E7E7E7
:1045700084230B601360F3E700F58E200F490830A9
:10458000212213232A60236002600B60D0E73922C6
:10459000F7E785230B601360E2E780230B6013606D
:1045A000DEE700BF0040074001400740DCB9FF1FC5
:1045B00008B003400CB0034008B00B400CB00B40F7
:1045C000CDCEFF1F20B0034020B00B40DDB9FF1F50
:1045D00024B0034024B00B40CACEFF1F0C2830B4D7
:1045E00017D91023984228BF18461946104A114D72
:1045F0001478181A8C42287018D00F4913700B7851
:1046000023B10E490E4A00230B60136030BCFFF744
:1046100075BF0A2802D90C231946E7E7082802D9F2
:104620000A231946E2E708231946DFE730BC704742
:10463000DCB9FF1FC9CEFF1FCACEFF1F24B0034045
:1046400024B00B4028282DE9F0412BD82F4B1E5CBD
:10465000FF2E27D02E4B1B783BBB320629D472B6D7
:104660002C4D2D4C2F46012326602B7062B672B65E
:1046700023681B060CD43B781BB9F4E72B78002B7E
:10468000F1D062B600F038FF72B623681806F5D58F
:10469000224A002310682B7062B6214B1B78184108
:1046A000BDE8F0810020BDE8F081FFF79FFE3206F3
:1046B000D5D572B61B4D1C4F1C4C06F040085FFA56
:1046C00088F806F03F063B68B8F1000F1AD023F0D7
:1046D00010033B6001232660124A2B7062B672B64B
:1046E000236819060CD413781BB9ECE72B78002B40
:1046F000E9D062B600F000FF72B623681B06F5D55C
:104700000B4AC6E743F010033B60E3E708BB000039
:10471000CACEFF1FCCCEFF1F00B0034010B0034035
:10472000C9CEFF1FCBCEFF1F0CB00B4000B00B401B
:1047300010B00B40F0B51C4B1C4E596818689A68B5
:10474000DB6885B06C460FC4337899076D461ED57B
:10475000174A184F1378184C184913F0700318BFF4
:104760001370174B4FF0800E00263320032287F87A
:1047700000E0267008701A7072B6043C45F001051E
:104780002046A84762B6237813F0700309D10D4B79
:10479000064901E0013B02D00A78D207FAD505B0FC
:1047A000F0BD237005B0F0BD34BB00000100024035
:1047B0000000024007000240040002400B000240DB
:1047C0000A000240410D030000B5B0F5006F83B050
:1047D0000AD20A4B1B78DB070AD500F1A0500078FB
:1047E000C0B203B05DF804FB002003B05DF804FB29
:1047F0000190FFF79FFF0198EFE700BF0100024023
:1048000000B5B0F5006F83B013D2114B1B78DA07F7
:1048100012D500F1A05003788B420AD00D4A1378CC
:1048200013F0700318BF1370094A01701378DB0787
:10483000FCD503B05DF804FB01900091FFF77AFF0F
:104840000198009900F1A05003788B42E6D1F0E77F
:104850000100024000000240024B1A6801321A6057
:10486000704700BFD0CEFF1F08B5104C08E023688A
:1048700059050DD423681A050FD42368DB0411D41D
:1048800023685803F3D500F013F823685905F1D5D0
:1048900001F062F923681A05EFD501F00BFD2368DA
:1048A000DB04EDD501F0C4FFEAE700BF348004402B
:1048B00008B5FFF7D9FF00BF014B10221A807047DF
:1048C00000200540704700BF024A1368184410607A
:1048D00018467047E0B9FF1FFEE700BFEFF31380F3
:1048E00070B9EFF310836BB9EFF305825AB94FF447
:1048F0008070EFF311822AB1824238BF10467047B0
:104900004FF0FF3070470F2A01D81846F1E7014BEE
:10491000D05CEEE7F0E300E0704700BF10B4114B4D
:1049200053F8302092F8804234B1012379B182F8F3
:1049300080305DF8044B704703EBC0035B681A6876
:1049400051B922F002021A605DF8044B704782F8F8
:1049500000315DF8044B704742F003021A605DF8C5
:10496000044B704744BB00001C4B03EBC002012901
:10497000526811D004291BD053F83000002380F86E
:10498000803229B1022920D0032922D01360704738
:104990004FF480731360704753F830004FF4A273E4
:1049A00080F880121360136823F0200313607047AF
:1049B00053F830104FF4A273012081F88002136085
:1049C000136843F020031360704740F20313136031
:1049D00070474FF481731360704700BF44BB000001
:1049E00021282DE9F0410D4606D8042A04D8DFE835
:1049F00002F04B4E51054800BDE8F0814FF41028FD
:104A00002C4B03EBC0035C68216811F4E0614AD0D1
:104A1000294B2A4AC3F89C2104F14042A2F5922175
:104A2000DFF8BCC0264F274E2748C3F8A0C17C2919
:104A3000C3F8A471C3F8A861C3F8AC012DD9A2F5DD
:104A400094237C2B2BD9A2F596237C2B29D9A2F574
:104A500098237C2B2AD9A2F59A227C2A28D81B4A93
:104A600072B6236823F4702343F08071C4F384008A
:104A700041EA0801236042F82050216062B6BDE897
:104A8000F0814FF43028BBE74FF40028B8E74FF42B
:104A90004028B5E74FF42028B2E70D4AE0E70D4A79
:104AA000DEE70D4ADCE7FFF75FFFB1E70B4AD7E728
:104AB000BDE8F08144BB000000B6FF1FB1B8FF1F86
:104AC00059B8FF1F2DB8FF1F01B8FF1FBCBAFF1F49
:104AD000E4B9FF1F1CBAFF1F6CBAFF1F9CBAFF1F6F
:104AE00085B8FF1F1A4B03EBC00010B4436803F1F5
:104AF0004042A2F592217C2924D9A2F594217C2957
:104B00000DD9A2F596217C2920D9A2F598217C29DE
:104B10001AD9A2F59A227C2A11D80E4900E00E4932
:104B200072B61A680D4C22F08772C3F3840022F427
:104B3000803242F080721A6041F8204062B65DF81F
:104B4000044B70470649EBE70649E9E70649E7E702
:104B500044BB0000BCBAFF1F1CBAFF1F194900006C
:104B6000E4B9FF1F9CBAFF1F6CBAFF1F30B4054B9E
:104B7000054C0649002210251A60226008601D605D
:104B800030BC704714D0034004D0034000D0034031
:104B9000212801D8FFF7C2BE704700BF212806D8E0
:104BA000044B53F8303093F80002C0B27047002035
:104BB000704700BF44BB0000212801D8FFF7D4BED6
:104BC000704700BF72B60C4B0C4A0D491B68126847
:104BD000096862B6490102D5322B88BF0132094902
:104BE000C3F5EA33BF33A1FB03039B094FF47A708B
:104BF00000FB0230704700BF18E000E0D0CEFF1F7E
:104C000004ED00E08988888838B50546FFF7DAFFAB
:104C100004469DB1FFF7D6FF001BB0F57A7F09D39C
:104C2000013D0AD0FFF7CEFF04F57A74001BB0F502
:104C30007A7FF5D200F060FCECE738BD38BD00BFEC
:104C40002DE9F84F354BDFF8F4A0354ADFF8F0E0F6
:104C5000DFF8F080DFF8F0C0324F334E334D344C84
:104C600034483549DFF8E4904FF4000BC3F800B046
:104C70004FF0807BC3F800B04FF0007BC3F800B06A
:104C80004FF0806BC3F800B04FF0006BC3F800B07A
:104C90000023CAF800304EF6FF7AC2F800A028229E
:104CA000C8F80020CCF80020CEF800203A6032602E
:104CB00007F5FF272A6006F5FF26226005F5FF2588
:104CC000026004F5FF24092008600CF5805CC9F837
:104CD000003001F50021C8F8FCAF07F5FC6706F2CB
:104CE000DC7605F5FB6504F5FB6408F6FC78C8F88E
:104CF0000420CCF80020CEF8E40F3B60C6F800A0FA
:104D00002A6022600860FFF7F9FB4FF4C870FFF7D4
:104D10007BFFBDE8F84F00F01BB800BF08E100E0E2
:104D200008800340248003402C80034034800340EB
:104D30003C800340448003400080034004800340E3
:104D40001C8003400C800340148003400490034007
:104D5000704700BFF0B4C02928BFC02172B6124B03
:104D6000124C1860002323606360A360E36023613A
:104D700063610127A9B15A0903F01F0654F82250B4
:104D800007FA06F6013335438B4244F82250F2D13C
:104D900000221346841802F58272637001338B423D
:104DA000F8D162B6F0BC7047DCCEFF1FE4CEFF1F27
:104DB00070B472B61F4B186820B9586820B304331A
:104DC000202500E000251C4C2278B0FA80F14FF03D
:104DD0000046CE400132D2B220EA060022701860AE
:104DE00062B66B1A03EB83139B00144814490068E6
:104DF00003F5FB531C330124C4540C78944218442B
:104E000038BF0A7070BC7047986820B9D86828B15C
:104E10000C336025D7E708334025D4E7186920B95B
:104E2000586928B11433A025CDE710338025CAE78F
:104E300062B6E7E7E4CEFF1FE1CEFF1FDCCEFF1F27
:104E4000D8CEFF1F70B4427872B60378012B04D914
:104E5000013B037062B670BC7047501109490A4BA0
:104E600051F820401D78D2434FF0004602F01F0257
:104E700026FA02F214436A1E41F820401A7062B604
:104E800070BC7047E4CEFF1FE1CEFF1FC36830B493
:104E900013B913E0DB688BB1187A9042FAD15868E5
:104EA0005C7A006950F82450002DF3D140F82410AA
:104EB000087801300870DB68002BEDD130BC7047FA
:104EC000437A8B4206D90369002253F8210043F844
:104ED000212070470020704738B5437A8B421AD999
:104EE000036953F82140002243F821209CB1237824
:104EF000012B0ED9FFF75CFF054628B10430211DB8
:104F00004FF48072FFF7D8F92378013B23702846CD
:104F100038BD204638BD002038BD00BF4368427A06
:104F20005B7A9A420ED872B60168CA680AB90AE07A
:104F30001A46D368002BFBD1D060426801230B7264
:104F4000137262B67047C860F7E700BF094B1A7862
:104F500030B45AB908480949D02505704FF080444B
:104F600001220C6010461A7030BC7047002030BC23
:104F7000704700BFE0CEFF1F5EE400E008E100E004
:104F80001A4A1B491068F8B540F08070194B106040
:104F90001A68194D0C6842F001021A602F6814B9A2
:104FA00015E064699CB1237A002BFAD022682E6840
:104FB0001368204698472B68E1889B1B1B099AB20F
:104FC0008B42A28088BFE2806469002CEBD10A4A40
:104FD0000A4B126819880A48D71B3F09BAB28F4298
:104FE000028001D91A80F8BDF8BD00BFFCED00E0D9
:104FF000D4CEFF1F001000E0041000E0E2CEFF1F3F
:10500000FCCEFF1F2DE9F00772B699B902688AB18C
:1050100003790F2B0ED82D4C218841FA03F5ED07AB
:1050200006D503F1007303F59063B2EB431F4AD03A
:105030000D4602E0254C25882946002341FA03F25B
:1050400012F0010209D00133102BF7D162B6002211
:1050500003710260BDE8F0077047012199400D43DC
:10506000258062B61A4D1B4CDFF87490DFF874800F
:10507000194F1A4EDFF870C0D9B20171D5F800A0EF
:105080004AF0020AC5F800A0256803F1007303F591
:1050900090635B0145F0020A8225C4F800A0C9F8BC
:1050A000005088F800108CF8001039703170BDE89D
:1050B000F00703601A605A609A60DA601A615A61F8
:1050C0009A61DA61704762B6C4E700BFFECEFF1F87
:1050D000408004403C800440188000401F80004015
:1050E000008000401A8000401E80004003790F2B92
:1050F00010B410D8094A137072B6094B0279198896
:10510000012404FA02F221EA02021A8062B6102295
:105110000023027103605DF8044B70471A80004061
:10512000FECEFF1FF8B506460F4662B114460025B5
:10513000336817F8011B1B6830469847013C05444B
:10514000F6D12846F8BD1546FBE700BF2DE9F04330
:105150008C688BB089468046DCB1002637463346E2
:10516000484601A9212200F043F9D8F80030202C4C
:1051700034BF254620255B682A46404601A998474A
:10518000641B2E440744002CE9D138460BB0BDE81F
:10519000F0832746F9E700BF00B5064A0368128886
:1051A0005B6883B001A9ADF804200222984703B0E0
:1051B0005DF804FB54BC000070B440B110490A68AB
:1051C0003AB9104BB3FBF0F20B6000FB123070BC2D
:1051D00070470D4C0D4B0E4D84FB02641444D617E2
:1051E000C6EB244403FB142205FB04F444F2A7138A
:1051F00003FB0243002BE5DA03F10043013BE1E747
:1052000000CFFF1F42CE0C1F5F0B4E831DF301002A
:10521000ECF4FFFF884210B5044600DB10BD081A0D
:10522000FFF7CAFF204410BD10B4019C401AE41AD5
:1052300004FB00F0521A90FBF2F018445DF8044BA6
:10524000704700BF10B50446006803F0DDFD20463E
:1052500010BD00BF38B543688B4204460D4601D3EC
:10526000012038BD0068013104F054F90028F8D05D
:10527000A36884E82100002BF2D10370F0E700BF9F
:10528000F8B515460E46044632B9036803B11A70E4
:105290000023A3602046F8BD1146FFF7DBFF074659
:1052A00048B9206810B103F0AFFD276000236360A8
:1052B000A3602046F8BDA5603146206804F0A4FB39
:1052C000E8E700BF38B5002304460D46036043609D
:1052D0008360037339B1084604F0F4FB29460246A3
:1052E0002046FFF7CDFF204638BD00BF38B5054644
:1052F00008460C4604F0E6FB214602462846BDE877
:105300003840FFF7BDBF00BF10B5044619B1FFF725
:10531000EDFF204610BDA160204610BD2DE9F843E9
:1053200003688B4204460D46806816460AD81A1850
:10533000914207D2C3EB01094FF0010836B920466C
:10534000BDE8F8834FF00008002EF8D03718394632
:105350002046FFF77FFF0028F1D0B8F1000F0ED0F4
:105360002368A068324603EB09011844FEF7A4FF46
:1053700023680022DA55A7602046BDE8F88320683C
:10538000A3682946184404F03FFBF4E710B582B047
:1053900000238DF80410012201A904468DF8053080
:1053A000FFF7BCFF204602B010BD00BF10B58B68F0
:1053B0008468E41A94420ED3006858B1096841B178
:1053C00010441A4604F0AEFBD0F1010038BF0020B3
:1053D00010BD084610BD002010BD00BF82688B685C
:1053E0009A4202D30022FFF7E1BF0020704700BFBE
:1053F00038B50C468AB181B1816899420ED9C91A73
:105400000068013A8A4234BF15460D462A46C11843
:10541000204604F0E1FB0023635538BD00232370D0
:1054200038BD00BF8368934210B506D90468A01840
:1054300004F070FA08B1001B10BD4FF0FF3010BD32
:105440000022FFF7EFBF00BF9A42F8B504460D46B1
:1054500002D911461A460B460020A060A9682060B8
:105460008A42606020730ED88B4234BF1E460E46BF
:105470002B689F5D98552B68991806D02046FFF73A
:1054800035FF2B689F552046F8BDA1609F55FAE770
:1054900010B58B680446FFF7D7FF204610BD00BF4C
:1054A000006808B103F06CBC704700BF08B5FBF79B
:1054B000E3FDFBF701FD00F01FF8FAE7002070475D
:1054C0004FF0FF30704700BF4FF0FF30704700BF14
:1054D000704700BF0120704710467047044B054AD3
:1054E0001A604FF47A71002299601A711A7370472A
:1054F00008CFFF1F60BC000010B5104C237803B12B
:1055000010BD0123237000F0A7FA40B900F052FE4D
:1055100058B901F021F970B90023237010BD01F0D2
:105520006FFA00F047FE0028F3D001F0F5FA01F021
:1055300013F90028F0D001F07BFBEDE718CFFF1F37
:105540002DE9F84F204B1B6883460BB101221A70DE
:10555000DFF888801D4D98F800401D4F1D4E013426
:105560003F2C8ABF4FF000095FFA84F94C46AA46E7
:105570002B78A34215D1FFF7B1F940281FDC33790E
:105580001B06F5D59AF8003001333F2B86BF002269
:105590001346DAB2FB5CDBB2F3712A702B78A342BC
:1055A000E9D00D490B4B5FFA8BFB07F804B00120E3
:1055B000BC22087088F80090DA70BDE8F88FFF28E8
:1055C000D6DDFFF799FFD3E7ACCFFF1FA9CFFF1FB1
:1055D00024CFFF1F00A00640A8CFFF1FB0CFFF1FA2
:1055E0002C4B2D4AD3F800C02C492DE9F0074CF480
:1055F000806CC3F800C02A4F2A4E2B4D2B4C1278DA
:1056000000233B7033702B7023700B70002A3BD04B
:10561000152A2CD0264B1B78012B30D0052B03D11B
:10562000244B4FF451721A60234B244D2449C0F38C
:10563000443AC0F3471904224FF002083C274026A1
:1056400000F01F004FF0880C83F800A04FF40054C6
:1056500083F8019098729A7083F813805A7583F8D2
:1056600010C0DF702E700C60BDE8F0077047154B5E
:1056700040F213321A600E4B1B78012BCED1124B25
:105680004FF451721A60CFE7104B40F213321A6098
:10569000C0E700BF3480044064CFFF1FA8CFFF1FC6
:1056A00020CFFF1F21CFFF1FB0CFFF1FA9CFFF1FAC
:1056B000C4BAFF1F1CC0044000A006402DE400E057
:1056C00004E100E018C0044044A0044040A00440AD
:1056D000144B9B7800F0030203F0EC03134300F03B
:1056E0000F0142070F4A48BF43F01003042993708B
:1056F00013D00C4B5A790B4B02F0EF02C10648BF96
:1057000042F010025A719B79820603F0EF03054ABA
:1057100048BF43F0100393717047937943F04003FF
:105720009371E6E700A00640144B1B685B052DE96A
:10573000F0411FD5124C237823B1FFF7DDFE23780B
:10574000002BFAD1DFF854C00E4F0F4E0F4D104C06
:105750001048114900234FF40058CCF8008040F263
:105760000312FB7032602A60226803700B701AB15A
:1057700001231370BDE8F081BDE8F081348004405E
:10578000A8CFFF1F00A0064040A0044044A0044052
:105790001CCFFF1F20CFFF1F21CFFF1F84E100E0A0
:1057A0000A4A38B50546137803F0FF04002BFAD1F6
:1057B00028460121FFF700FA28462146FFF7E8F9BD
:1057C000034A044B52F835201A6038BDA8CFFF1F9A
:1057D00044BB0000ACCFFF1F10B409B140F0800003
:1057E000164B1A78904214D0154C246864050FD5D6
:1057F00002F07F02012A1DD0052A12D0002900F0F4
:105800007F020CBF44216021012A0ED0052A03D05B
:1058100018705DF8044B70470A4A41F440711160FA
:10582000F6E7084A00241460E8E7074A41F44071AB
:105830001160EDE7044A00241460DFE7C4BAFF1FDB
:10584000348004401CC0044044A00440104B1A782B
:1058500090420AD00F490968490505D5AAB1152A11
:1058600009D068B1152801D0187070470A4A40F273
:1058700013311160F8E7084A002111600028F1D1C6
:10588000064A40F213311160EEE704490A60E8E786
:1058900064CFFF1F3480044018C0044040A004407F
:1058A0000D4B1B6813F4806310B505D0212805D972
:1058B0000A4B0020186010BD184610BD084B074C5D
:1058C00053F8303023600121FFF776F92368002276
:1058D0001A70012010BD00BF348004401CCFFF1F90
:1058E00044BB00000F4B1B6813F4806308D01228E0
:1058F00008D0142811D00C4B5A7B02F0FE025A73C8
:1059000000207047094B40F202321A60064B5A7B66
:1059100042F001025A7301207047054B40F20232F7
:105920001A60F3E73480044000A006400CA0044055
:1059300014C00440034B1B685B0501D5FFF700BE94
:10594000704700BF348004402DE9F04F2C4B1B689A
:105950005A0583B0074650D52A4B1B680BB101226C
:105960001A7079188F42019144D2DFF8A8A0264D11
:10597000DFF8A4B0DFF898900BE017F8013B234A5A
:105980000BF8063001231370019B8AF800809F42B8
:1059900030D09AF800602C7801363F2E84BF4FF04B
:1059A00000084646E4B298BF5FFA86F8B442E4D1F4
:1059B000BC2389F8033006E099F804301B060BD4A9
:1059C0002B789C42D9D1FEF789FF4028F4DDFF28CF
:1059D000F6DDFFF791FDF3E72B7801333F2B86BF10
:1059E00000221346DAB21BF80330DBB289F8073025
:1059F0002A70E5E7064BBC22DA7003B0BDE8F08FF1
:105A000034800440ACCFFF1FA9CFFF1FA8CFFF1FDA
:105A100000A00640B0CFFF1F24CFFF1F10B5044CDD
:105A2000237823B1FFF768FD2378002BFAD110BD4E
:105A3000A8CFFF1F064B074A1B781278DBB2D2B201
:105A400093422CBF3F3202F1FF32D01A704700BFA1
:105A5000B0CFFF1FA9CFFF1F054A064B10781B7858
:105A6000C0B2DBB2984238BF4030C01A704700BFA6
:105A700020CFFF1F21CFFF1F30B4144B14491A78D9
:105A80000B78D2B2DBB29A421DD001333F2B1148C2
:105A900010D8114CC05C2468DDB2C0B20D703CB1AE
:105AA0009A4238BF4032D31A1A2B01DC00232370EC
:105AB00030BC7047084B00781C680023C0B20B70E4
:105AC000002CF0D1F4E74FF0FF30F1E720CFFF1FBB
:105AD00021CFFF1F68CFFF1F1CCFFF1F084A094BB4
