:1000000000800020BD010000516E0000096E00005C
:10001000096E0000096E0000096E0000096E000004
:10002000096E0000096E0000096E0000516E0000AC
:10003000516E0000096E0000956100009962000099
:10004000516E0000516E0000516E0000516E0000B4
:10005000516E0000516E0000516E0000516E0000A4
:10006000516E0000516E0000516E0000516E000094
:10007000516E0000516E0000516E0000516E000084
:10008000516E0000516E0000516E0000516E000074
:10009000516E0000516E0000516E0000516E000064
:1000A000615B00006D5B0000516E0000516E00004E
:1000B000516E0000516E0000516E0000516E000044
:1000C000516E0000516E0000516E0000516E000034
:1000D000516E0000516E0000516E0000516E000024
:1000E000516E0000516E0000516E0000516E000014
:1000F000516E0000A9840000516E0000D5850000FB
:10010000516E000001870000516E0000516E00002A
:10011000516E0000516E0000516E0000516E0000E3
:10012000516E0000516E0000516E0000516E0000D3
:10013000516E0000516E0000516E0000516E0000C3
:10014000516E0000516E0000516E0000516E0000B3
:10015000516E0000516E0000516E0000516E0000A3
:10016000516E0000AD740000516E0000516E000031
:10017000516E0000516E0000516E0000516E000083
:10018000516E0000516E0000516E0000516E000073
:10019000516E0000516E0000516E0000516E000063
:1001A000516E0000516E0000516E0000516E000053
:1001B000516E0000516E0000515F0000564B4CF232
:1001C000205210B51A804DF628121A8000BF00BFC9
:1001D00006F042FE514B4FF010621A60504A9A608E
:1001E000504ADA60504A136813F4807304D14F49BF
:1001F0000B604FF4A85313604D4B1A78110703D5C9
:100200001A7842F008021A704A4B4B492A221A7097
:100210004A4A4B4B8B4204D252F8040F43F8040B6A
:10022000F8E7484B484900228B4202D243F8042B9E
:10023000FAE74649464A002352F8230041F82300D2
:1002400001336F2BF8D1434B434A802103F8011B44
:100250009342FBD1414B3D4A1A60414B8A221A70AE
:10026000A3F5805324225A70A0221A709A7992071B
:10027000FCD59A79D406FCD43A4A937903F00C035E
:10028000082B384BF9D103221A7140225A719A79FE
:100290009006FCD5334A9179324B4906FBD5324A58
:1002A000324911600221516020221A709A7902F0BD
:1002B0000C020C2AFAD12E4B2E4A1A602E4B2F4AD2
:1002C0001A6000225A60072243F8042C2C4AC3F813
:1002D0000C2D62B606F0A0FF144B1B68DA0705D59B
:1002E000284806F01FFF284B284A1A60284B1B7825
:1002F0005B0609D5244C254B22689A4204D121483B
:1003000006F010FF002323600AF01CFC06F0AAFD93
:1003100006F0D8FCFEE700BF0E2005403080044008
:10032000823F04000100002B10D0034014D0034092
:1003300002D0074000E0074060CAFF1F480B0100E1
:1003400020BDFF1F60CAFF1F60F5FF1F00B8FF1F21
:100350000000000000E400E05FE400E008ED00E0E1
:100360000050064000400640448004400000030165
:1003700004800440C010050014E000E0FF76010096
:100380000000202063AB485D1CE00340A5C3945AE5
:1003900000F00740FFFFFFFFFFFFFFFFFFFFFFFF32
:1003A000FFFFFFFFFFFFFFFFFFFFFFFFFFFFFFFF5D
:1003B000FFFFFFFFFFFFFFFFFFFFFFFFFFFFFFFF4D
:1003C000FFFFFFFFFFFFFFFFFFFFFFFFFFFFFFFF3D
:1003D000FFFFFFFFFFFFFFFFFFFFFFFFFFFFFFFF2D
:1003E000FFFFFFFFFFFFFFFFFFFFFFFFFFFFFFFF1D
:1003F000FFFFFFFFFFFFFFFFFFFFFFFFFFFFFFFF0D
:10040000FFFFFFFFFFFFFFFFFFFFFFFFDEF9FFFF23
:1004100010B5054C237833B9044B13B10448AFF33E
:1004200000800123237010BD60CAFF1F0000000080
:100430004C0B0100084B10B51BB108490848AFF33D
:1004400000800848036803B910BD074B002BFBD0A0
:10045000BDE81040184700BF0000000064CAFF1F3D
:100460004C0B010060CAFF1F00000000F0B4002424
:1004700000220C4DC16010274FF07E560A210781E3
:100480004661046004618461C4610562456280F86C
:100490002B10426080F8282080F8292080F82A203C
:1004A000F0BC704718FCFFFFF8B50E46044680F814
:1004B00029301146304615460AF0DEFA18B3256198
:1004C0006661294630460AF011F84FF07E510AF075
:1004D0000FF8014607464FF08C400AF0C5F9124963
:1004E000A061054638460AF0A9FA10B194F82930FF
:1004F00073B91023238129464FF07E500AF0B4F9D6
:100500002660E061F8BD2661656128463146DAE77C
:10051000012384F82830054928460AF0A5F90AF095
:10052000DBFA2081E7E700BF000048430000A0405D
:10053000F8B590F82A600446002E30D090F82B00D1
:100540000025656000286AD0207B06F0B3FA636856
:1005500094F82B2001351844AA426060F4DC21890C
:1005600090FBF2F0636A60608842B8BF0020A0EBA5
:100570000303B8BF6060002BB8BF5B42994202DB47
:1005800000263046F8BD60620AF066F8E1690AF0BC
:10059000B7F8216909F0ACFF20603046F8BD007B58
:1005A00006F088FA94F8296080F30D0565600EB3B3
:1005B00028460AF051F8E1690AF0A2F80AF066FA52
:1005C0000AF04AF8216909F093FF0AF05FFA0AF08D
:1005D00043F8216807460AF027FA0028D0D1636A59
:1005E0002289EB1A002BB8BF5B429342C8DD6562DB
:1005F0002760C6E7236A2289EB1A002BB8BF5B424B
:100600009342BDDD28460AF027F8E1690AF078F840
:10061000216909F06DFF012620602562B1E70246DD
:100620009DE700BF054B82B01B680193019BC0F89A
:10063000DC340123437002B0704700BF88F2FF1F13
:10064000F8B50C4606460021204615460AF0F6F994
:1006500050B9204920460AF00FFAC0B155BBD6F870
:10066000C834D3F8FC01F8BD55BB0027D6F8C83410
:1006700053F8254003EB85052146686809F036FFED
:1006800039460AF03DF8214609F032FFF8BDC5B9F8
:10069000204609F08BFB08F0E3F809F08BFE0546D5
:1006A00009F0DAFF0146204609F020FF7E2D0746BB
:1006B000DCDDD4E7D6F8C8344FF4FE701858F8BD26
:1006C000002420460AF0E2F9D6F8C8348000185811
:1006D000F8BD00BF0000FE422DE9F84FD0F8C8B4C5
:1006E0008A4600F56B7500F2244700F573784FF0E9
:1006F00000090FE0214930460AF002F80AF0ECF94F
:100700001F4BE061984225D84545C4F82090A4F8D5
:1007100032A027D057F8046F55F8044F0021304617
:100720000AF08CF918BB174930460AF0A5F900B356
:100730004FF4FE705BF800604FF480330021636279
:1007400030460AF07BF978B90F4930460AF094F93F
:100750000028CFD00A4BE3614545C4F82090A4F8A7
:1007600032A0D7D1BDE8F88FC4F81C90CCE70020A8
:10077000E0E730460AF08AF98000DBE74B24BE4709
:100780000000FE7F0000FE42A655AC46D0F8D02403
:100790000D4B043A1340002B10B410DB03F58172AB
:1007A00000F5737150F8224000F56B7353F8042F75
:1007B0008B42D462FAD1042110BCFFF78DBF013BFC
:1007C00063F007030133E9E707000080D0F8D03475
:1007D000032B05DC03F5F47330F91310FFF77CBF2E
:1007E000FFF7D4BF2DE9F041884604463221334853
:1007F0001E46154605F02CFAB8F80830042B50DDDB
:10080000B3F5FA6F50DD2E484FF4FA6798F80030D0
:100810002370C4F8D804C4F8D47404F56B7304F5D9
:1008200073704FF0004153F8042F98429162FAD14F
:100830004FF480430622002147F670504FF0804766
:10084000C4F8DC31C4F81432C4F8E031C4F818320A
:10085000C4F8E431C4F81C32C4F8E831C4F82032DA
:10086000C4F84C02C4F85002C4F85412C4F8581228
:10087000A4F89622A4F89A22A4F8A02204F51B70EA
:10088000C4F89C7202F02AFE0E4BC4F8C854C4F897
:10089000D06420461F60FFF799FF0B4B1F60BDE837
:1008A000F0810A480527B1E718461F4609F0D0FE37
:1008B00001464FF07E5009F0D7FFA7E70082FF1FE7
:1008C0006F12033A88E100E008E100E0CDCC4C3E35
:1008D00001F1F60370B550F82350D0F8881404469F
:1008E000284609F00DFF754906460AF0C5F840B9DB
:1008F000734930460AF0A2F8002800F0C980714818
:1009000000E07148C4F8DC01D4F88C14284609F0E2
:10091000F7FE6A4906460AF0AFF840B96849304622
:100920000AF08CF8002800F0AB80664800E06648CA
:10093000C4F8E001D4F89014284609F0E1FE5F49BC
:1009400006460AF099F840B95D4930460AF076F853
:10095000002800F08D805B4800E05B48C4F8E401AB
:10096000D4F89414284609F0CBFE544906460AF000
:1009700083F838B9524930460AF060F800286FD041
:10098000504800E05048C4F8E801D4F898142846CC
:1009900009F0B6FE494906460AF06EF838B94849EA
:1009A00030460AF04BF8002852D0464800E046484E
:1009B000C4F81402D4F89C14284609F0A1FE3F495B
:1009C00006460AF059F838B93D4930460AF036F87B
:1009D000002835D03B4800E03B48C4F81802D4F862
:1009E000A014284609F08CFE344906460AF044F863
:1009F00030B9334930460AF021F8C8B1314800E037
:100A00003148C4F81C02D4F8A414284609F078FE32
:100A10002A4905460AF030F800284BD128492846D3
:100A20000AF00CF800283BD02648C4F8200270BD1C
:100A30004FF08F41304609F063FE0AF027F8E0E7F7
:100A40004FF08F41304609F05BFE0AF01FF8C4E713
:100A50004FF08F41304609F053FE0AF017F8A7E730
:100A60004FF08F41304609F04BFE0AF00FF88AE74D
:100A70004FF08F41304609F043FE0AF007F86DE76A
:100A80004FF08F41304609F03BFE09F0FFFF4FE782
:100A90004FF08F41304609F033FE09F0F7FF31E7A0
:100AA0004FF08F41284609F02BFE09F0EFFFC4F804
:100AB000200270BD0448C4F8200270BD00FEFF464D
:100AC00000FEFFC6000001800000FF7F2DE9F04F0F
:100AD000437885B082460191002B5BD0324AD0F832
:100AE000DC34126803920398C01A09F0B1FDDAF8F9
:100AF000D81409F005FE01464FF07E5009F0F6FCCF
:100B00000021834609F09AFF002846D100250AF209
:100B1000244854460AF244470DE0484609F0F0FDE7
:100B200009F0DAFF214BF061984226D80135082DF3
:100B300004F1040428D057F8041F584609F0E0FDDA
:100B4000014658F8040F09F0D1FC0199C4F8680473
:100B500009F0CEFC002201465046FFF771FD00214E
:100B6000814609F06BFFD4F8B063114978B9484663
:100B700009F082FF0F490028CFD001350B4BF361FC
:100B8000082D04F10404D6D105B0BDE8F08F002390
:100B9000F361CBE74FF0000BB8E700238AF8013090
:100BA0004FF0000BB2E700BF88F2FF1F0000FE7F8E
:100BB000A655AC464B24BE4770B5437882B0044678
:100BC0000D46164663B1144BD0F8DC141B68019334
:100BD000019BD0F8D4245B1A9A429CBF0023437037
:100BE000D4F8D0340D4A4FF08041AB42116004D0AC
:100BF000C4F8D0542046FFF7E9FD31462046FFF700
:100C000065FF29462046FFF763FE054B4FF0804203
:100C10001A6002B070BD00BF88F2FF1F88E100E0DB
:100C200008E100E02DE9F0478D1E8046924600F570
:100C3000856400F589692E46002736F9023FFF2BAF
:100C400018460AD009F008FD514609F051FC216C04
:100C5000206009F04BFC0137206204344C45ECD194
:100C600007F22917002458F8271008F5916308F5B2
:100C7000956035F9022FFF2A14BF19601C600433F8
:100C80008342F6D1BDE8F0872DE9F04F83B08E1E88
:100C900000F587630546019200F585640093B04630
:100CA000002738F9023FFF2B184619D009F0D4FC71
:100CB000019909F01DFC2060D5F8CC14814609F09B
:100CC0001FFDD4F840A0206183465146484609F0F4
:100CD0000DFC51462062584609F008FC023720639B
:100CE000009B04349C42DCD107F2291705F591637F
:100CF00055F82710002005F5936536F9022FFF2AD5
:100D00001ABF1960196118600433AB42F5D103B002
:100D1000BDE8F08F03780BB1FFF7B6BFFFF782BFD6
:100D200010B5044600F5816003F0C0F9204610BDFF
:100D300010B5044600F5C150083003F0B7F920465D
:100D400010BD00BF10B5044600F5047003F0AEF905
:100D5000204610BD10B5044600F5677005F0A2F8F6
:100D600004F5627005F09EF804F55D7005F09AF8E0
:100D700004F5587005F096F804F5537005F092F8F4
:100D800004F54E7005F08EF804F5497005F08AF808
:100D900004F5447005F086F804F53F7005F082F81C
:100DA00004F53A7005F07EF804F5357005F07AF830
:100DB00004F5307005F076F8204610BD2DE9F041BD
:100DC0000A210646134803F021FAF8B9DFF85080EB
:100DD000114F04460A210F4803F018FA0F21054667
:100DE000A0B90E4801F072F8142006F0C7F904F01B
:100DF00003010A4801F06AF80134142006F0BEF934
:100E0000042CE7DD1EB1C8F80070E3E70125284691
:100E1000BDE8F081C0EFFF1F0400FA05C8E2FF1F24
:100E20000CED00E038B507212E482F4C03F00AF8EE
:100E30000E212C4803F04EF82C4801F01BF800203E
:100E4000FFF7BCFF01460546204601F055FFE1785B
:100E500000293CD12648274D81F0010101F070FFA7
:100E600040F2D24005F0ECFE6378286033B3224CA8
:100E7000224B8010032220601A60214A1A4921481F
:100E800000F030FE204802F0FFF91F4802F0ACF8F5
:100E90002B68154902461D48FFF7A4FC2B681C4926
:100EA0001940002919DB114801F010F82368002BC4
:100EB0000CDD0E48BDE8384001F02AB80F4A0E4C50
:100EC000012103281160D8DD2B60D6E738BD294603
:100ED0000B4801F0DBFBE178BCE7013961F003016D
:100EE0000131E0E704BEFF1FF8E2FF1FC8E2FF1F69
:100EF000DCE2FF1F0CEBFF1F7CCAFF1F00BEFF1FC1
:100F000080CAFF1F08EAFF1F10EBFF1F28E5FF1F25
:100F10000300008083100E4A002B10B504461360B6
:100F200002DD0C4800F0F4FF0B492140002909DBE9
:100F3000084800F0CBFFE1B240F2D240BDE81040DB
:100F400005F098BE013961F003010131F0E700BFFF
:100F50007CCAFF1FC8E2FF1F0300008010B4074BCC
:100F6000074C1B6821689B00013191FBF3F203FBE6
:100F700012132360184610BCFFF7CCBF00BEFF1F42
:100F80000CEBFF1FF8B52C4800F044FF04462B483B
:100F900001F004FF04F04003E2059DB23AD42306B9
:100FA0002ED5274A137883F001031370224E254F64
:100FB000B06A09F051FB716809F09AFA316907EBE0
:100FC000011102460C311E48FFF7A4FEBB7863BB3B
:100FD000DDB90121194801F0C3FE14B9184B5B7843
:100FE000B3B1154B184C9A6821681548FFF7E4FD1A
:100FF000164B226819681648BDE8F84000F094BF07
:1010000014F4087FD2D1002DE7D0FFF7A7FFE0E767
:101010000D4CEDE70F210E4800F040FF322006F0A6
:10102000ADF80C4B0C4A1A60B9E73378002BCFD0DF
:101030000348FFF7F7FACBE708EAFF1FDCE2FF1FE0
:1010400028E5FF1FF8E2FF1F0CEBFF1F7CCAFF1F04
:10105000C8E2FF1F0CED00E00400FA052DE9F04F97
:10106000DFF860B3CB4C8BB005F0A2FDDBF80030AD
:10107000C9490593C94B059D0A681D60C848606051
:1010800000232370637063736361237323611546C8
:1010900012B900F0E2BC1D466B69002BFBD1C14BBD
:1010A00001936B6100234FF08045DFF81CE3E5629C
:1010B000E063A36123816381A373E36123626362BD
:1010C000A3622363A386E386238784F84530E36421
:1010D00084F84430A364C4F804E0154600E01D46DB
:1010E0006B69002BFBD1B04E6E614FF08045656699
:1010F0002365A4F84030A4F8423084F84630C4F8A0
:101100003CE06365A365E3652366A366A4F86C30E1
:10111000A4F86E30A4F87030606784F87D30C4F8AD
:10112000843084F87C30C4F88030154600E01D46D9
:101130006B69002BFBD19D4E6E614FF08045C4F86A
:101140009C50C4F88830A4F87830A4F87A3084F839
:101150007E30C4F874E0C4F88C30C4F89030C4F821
:101160009430C4F89830C4F8A030A4F8A430A4F89F
:10117000A630A4F8A830C4F8AC0084F8B530C4F8A0
:10118000BC3084F8B430C4F8B830154600E01D46D1
:101190006B69002BFBD1864E6E614FF08045C4F821
:1011A000D450C4F8C030A4F8B030A4F8B23084F8F9
:1011B000B630C4F8ACE0C4F8C430C4F8C830C4F8E1
:1011C000CC30C4F8D030C4F8D830A4F8DC30A4F85F
:1011D000DE30A4F8E030C4F8E40084F8ED30C4F860
:1011E000F43084F8EC30C4F8F030154600E01D46C9
:1011F0006B69002BFBD16F4E6E614FF08045C4F8D8
:101200000C51C4F8F830A4F8E830A4F8EA3084F8B7
:10121000EE30C4F8E4E0C4F8FC30C4F80031C4F89F
:101220000431C4F80831C4F81031A4F81431A4F81A
:101230001631A4F81831C4F81C0184F82531C4F81B
:101240002C3184F82431C4F82831154600E01D46BD
:101250006B69002BFBD1584E6E614FF08045C4F88E
:101260004451C4F83031A4F82031A4F8223184F874
:101270002631C4F81CE1C4F83431C4F83831C4F85C
:101280003C31C4F84031C4F84831A4F84C31A4F8DA
:101290004E31A4F85031C4F8540184F85D31C4F8DB
:1012A000643184F85C31C4F86031154600E01D46B5
:1012B0006B69002BFBD1414E6E614FF08045C4F845
:1012C0006831A4F85831A4F85A3184F85E31C4F872
:1012D00054E1C4F86C31C4F87031C4F87431C4F806
:1012E0007831C4F88031A4F88431A4F88631A4F8A8
:1012F0008831C4F88C0184F89531C4F89C3184F8A5
:101300009431C4F89831C4F87C5100E01A4653690E
:10131000002BFBD12A4D556160351A464FF08047AE
:101320004FF0040CC4F8A031A4F89031A4F8923125
:1013300084F89631C4F8A431C4F8A831C4F8AC31AB
:10134000C4F8B031C4F8B831A4F8BC31A4F8BE3147
:10135000A4F8C03184F8CC31C4F8D0312B46C4F89D
:101360008CE1C4F8D451C4F8C4011546A3F5F67E47
:10137000C4F8B47184F8CDC101E0DEF8D43143F88B
:10138000225094F8CD3101329342F6DC0A68024BC8
:10139000EAB968E328E5FF1F2CF2FF1FF4E2FF1F04
:1013A000ECE400002CE5FF1F64E5FF1F9CE5FF1F38
:1013B000D4E5FF1F0CE6FF1F44E6FF1F7CE6FF1F7E
:1013C000B4E6FF1F88F2FF1F5C0401001A46536950
:1013D000002BFBD1DFF81482C2F814807B4EDFF8BB
:1013E00010E2C4F80C6200254FF480374FF0040C73
:1013F0003246C4F8FC012B46A6F50976C4F8D8514C
:10140000A4F8C851A4F8CA5184F8CE5184F8045203
:10141000C4F80852C4F8C4E1C4F8DC71C4F8E0713F
:10142000C4F8E471C4F8E87184F805C201E0D6F8A4
:101430000C2242F8235094F8052201339A42F6DC3C
:101440000A68634B0AB913E31A465369002BFBD1B0
:10145000604F5761604EC4F8446200254FF4803CF1
:101460004FF004093246C4F8FCE12B46C4F83402BC
:10147000A6F51776C4F81052A4F80052A4F8025248
:1014800084F8065284F83C52C4F84052C4F814C29E
:10149000C4F818C2C4F81CC2C4F820C284F83D9233
:1014A00001E0D6F8442242F8235094F83D2201335B
:1014B0009A42F6DC0A68464B0AB9DCE21A465369DE
:1014C000002BFBD1DFF82C91C2F81490434EC4F8E6
:1014D00034E200254FF4803E4FF0010C3246C4F850
:1014E0007C622B46C4F86C02A6F52176C4F84852FB
:1014F000A4F83852A4F83A5284F83E5284F8745250
:10150000C4F87852C4F84CE2C4F850E2C4F854E28B
:10151000C4F858E284F875C201E0D6F87C2242F89B
:10152000235094F8752201339A42F6DC0A68284B5E
:101530000AB9A5E21A465369002BFBD1284B029346
:101540005361284EC4F86C624FF03A0E0E26A4F890
:1015500096E24FF0C10E244DA4F89862A4F89AE2E6
:101560004FF0005640F2776EC4F8A402C4F89C62B3
:1015700000201C26A4F8A0E24FF0010E2A46C4F871
:10158000B4520346A5F52F75C4F88002A4F8700282
:10159000A4F8720284F8760284F88802A4F894020F
:1015A00084F8AC02C4F8B002A4F8A26284F8ADE2F8
:1015B00001E0D5F8B42242F8230094F8AD220133BB
:1015C0009A42F6DC0A680249BAB95DE24CE7FF1FAD
:1015D0002CF2FF1F24E7FF1F84E7FF1FACE7FF1F6C
:1015E00094E7FF1F38040100E4E7FF1FECE6FF1F4C
:1015F000440401005CE7FF1F1A465369002BFBD12E
:10160000E24B53610025E24AC4F8A422C4F8B85260
:10161000A4F8A852A4F8AA5284F8AE52DB48039367
:1016200002F0C4F8019BC4F8C03284F8C85284F8B0
:10163000C952C4F8CC5284F8D052C4F8C482D548F8
:1016400004F0FCFBD44884F8DC520126A0F5267295
:10165000C4F8E05284F8E452C4F8D422C4F8D88222
:1016600084F8DD6204F0EAFBCC4884F8F052A0F57F
:101670001D72C4F8E8224FF00202C4F8F45284F854
:10168000F852C4F8EC8284F8F12204F0D7FBC44885
:1016900084F80453A0F514724FF0030AC4F80853F9
:1016A00084F80C53C4F8FC22C4F8008384F805A322
:1016B00004F0C4FBBB4884F81853A0F50B7284F8FF
:1016C0001953C4F81C5384F82053C4F81023C4F8E9
:1016D000147304F0B3FBB44884F82C53A0F50272E1
:1016E00084F82D63C4F8305384F83453C4F82423A9
:1016F000C4F8287304F0A2FBAC4884F840534FF0C0
:10170000020284F84123A0F5F272C4F8445384F82D
:101710004853C4F83823C4F83C7304F08FFBA44842
:1017200084F855A3A0F5E072C4F84C2384F8545310
:10173000C4F8585384F85C53C4F8507304F07EFB2B
:1017400084F8685384F86953C4F86C5384F8705370
:10175000C4F86083C4F864939648DFF8A08204F06C
:101760006DFB954884F87C5384F87D63C4F88053FE
:1017700084F88453C4F87473C4F8789300F15C0A55
:1017800004F05CFB029A84F89053AAF1480084F8B4
:101790009153C4F8945384F89853C4F88893C4F8C8
:1017A0008C2304F04BFB029A039B84F8A453AAF108
:1017B000340084F8A553C4F8A85384F8AC53C4F893
:1017C0009C23C4F8A03304F039FBD8F80000D8F803
:1017D00004107A4F08F1080CAAE80300BCE80F00D7
:1017E000D646AEE80F00BCE80F00AEE80F009CE85C
:1017F0000F0008F1380C8EE80F00BCE80F000AF16A
:10180000300EAEE80F009CE80F0008F158098EE892
:101810000F00B9E80F000AF1500EAEE80F0099E88A
:101820000F008EE80F0029460AF17000202209F00F
:1018300029FD08F1580EBEE80F000AF1900EAEE83F
:101840000F0099E80F0008F1780C8EE80F00BCE853
:101850000F000AF1B00EAEE80F009CE80F0008F18F
:1018600098088EE80F00B8E80F000AF1D00EAEE835
:101870000F0098E80F008EE80F00AAF57670019B24
:10188000C4F8B03300F13C03C4F8B43300F174037E
:10189000C4F8B8333833C4F8BC333833DBF800C08D
:1018A000C4F8C0333833CDF824C0C4F8C433383357
:1018B000DDF824C0DFF848E1414AC4F8C833DFF856
:1018C00044914049C4F8DCC438334FF03208C4F8BE
:1018D000CCE4C4F8CC33C4F8D054C4F8D484C4F8ED
:1018E000D894C4F8C85409F017F937493748384C28
:1018F00000F0E2FE324A3749344809F00DF9364922
:10190000364800F043FB2E4A3549344809F004F9C3
:101910003449354801F076FA294A3449324809F009
:10192000FBF8334800F08EFA324B7B6007F1300051
:101930000821BB60FB603E707E70BD703D617D61C3
:10194000BD61FD613D627D62BD6287F82C50FEF78E
:101950008DFD07F15C000721FEF788FD07F1880087
:101960000621FEF783FD092107F1B400FEF77EFD95
:1019700007F1E00004F000F9DBF800300893089963
:101980001D4AC7F8E810002320463DE0CCE7FF1FC2
:1019900050040100E8E7FF1FFCE7FF1F10E8FF1FEE
:1019A00024E8FF1F38E8FF1F4CE8FF1F60E8FF1F17
:1019B00074E8FF1F88E8FF1F9CE8FF1F08EAFF1F6D
:1019C000FCBDFF1F550D0000C4EF0000F8E2FF1F33
:1019D000DCE2FF1F450D0000D4EF000080CAFF1FAE
:1019E000310D0000E4EF000010EBFF1F210D00009F
:1019F000C8E2FF1F0000104218FCFFFFF0E40000E7
:101A0000C520803F0AD7A33CC7F8F420C7F8F830B8
:101A1000C7F8FC30C7F8003187F8EC50C7F8F05031
:101A200004F0AAF82046092104F0AEF82046282147
:101A300004F0C0F8DBF8003006930699DBF80030BC
:101A40000793079B66740A222574A574E574A16048
:101A5000E26063610BB0BDE8F08F231D01930B6062
:101A60001A46FFF71FBBDFF83480C3F80080B5E4E7
:101A7000074F1F60EEE4DFF82890C3F8009025E5DB
:101A8000044A02921A605CE5034B0B60BAE500BFA2
:101A900024E7FF1F94E7FF1FCCE7FF1FECE6FF1FC3
:101AA0005CE7FF1F014B01221A70704738EFFF1FE0
:101AB00070B50446C0F8F010084608F0CDFD0025CA
:101AC00006460246294604F188000123FEF7ECFC95
:101AD0003246294604F1B4000123BDE87040FEF708
:101AE000E3BC00BFCB782DE9F041837004460D20A4
:101AF0000D46164604F0AAFF0021082005F038FB29
:101B0000A378B3B100210920666105F031FB0322FF
:101B10002049092005F046FA63690022B3F9220042
:101B2000B3F92410B3F926302362A0626162A26186
:101B3000E26104F1E0063046082104F025F8304661
:101B4000052104F037F8E97A2046FFF7B1FF6B79F9
:101B50002F7927706370A87908F07EFD4FF07C51D3
:101B600008F0C6FC0646A87A08F076FD314608F073
:101B7000BFFC3B460246314604F13000FEF794FCC0
:101B80006B79054A04F15C000021BDE8F041FEF7E5
:101B90008BBC00BFA51A000000004042F8B5344ECF
:101BA00033780446002B4DD0016A002922DC80697D
:101BB000E269676900EB4000C0014FF0000E01329E
:101BC0001F2AC8BF002202EB420300EB43033B4441
:101BD000D8BFE261B3F92610C8BFC4F81CE00029E1
:101BE000B3F92250B3F92430E9DD0122A562636222
:101BF00084F82C20013900232162337004F188001D
:101C0000FEF796FC04F1B400FEF792FCA578F5B956
:101C1000D4F8B410D4F8880008F06AFC0021064615
:101C2000D4F8F07008F00AFF00BB781E08F014FD2D
:101C300005460146304608F01FFF98B1284608F0D7
:101C400025FF05E003F0FF0280F82C20D6E7606A4C
:101C5000D4F8F430206183421ABFC4F8F400202085
:101C60000020F8BD304608F011FFF1E72846EFE705
:101C700038EFFF1F2DE9F04104463030FEF758FCE5
:101C8000054604F15C00FEF753FC80464DBB10B9DD
:101C900094F82C5015B3E66D67680025B8F1000F75
:101CA00037D1A6683146384608F022FCE06008F0DB
:101CB0007DF806F0D5FD0646D4F8F8000F4608F08A
:101CC00075F802460B463046394608F02BFB0028D3
:101CD00037D094F82C300BB145F004052846BDE808
:101CE000F0812378E66D206B3BB308F05FF806F0D7
:101CF000B7FD08F0A7FB074660600146D4F8000175
:101D00004FF0010508F090FE50BBADB2B8F1000FE6
:101D1000C7D0637803B3304608F048F806F0A0FD5A
:101D200008F090FBD4F8FC10A060064608F07CFE9A
:101D30000028B7D145F00205B4E7606007460125E9
:101D4000ACE73046394608F07DFB45F00405C4F8A1
:101D5000F8002846BDE8F081A66045F00205A1E73D
:101D60004FF00005ADB2D1E730B500F1E00587B026
:101D70000446284603F020FF284603F055FF40B1F3
:101D8000234B1B680093009BC4F8E830012384F8C0
:101D9000EC30284603F052FFD8B11D4BD4F8E810C0
:101DA0001A680192019A521A092A24D81A680392D1
:101DB000039A511AB1F57A7F94BF002080201B68E6
:101DC0000493049BC4F8E830002384F8EC3007B097
:101DD00030BD94F8EC30BBB10D4BD4F8E8101B6863
:101DE0000593059B41F288325B1A93420CD94FF45C
:101DF000807007B030BD1A680292029A521AB2F58A
:101E00007A7FD3D24020DAE7002007B030BD00BF90
:101E100088F2FF1F70B50546FFF7C0FE064628464C
:101E2000FFF728FF04462846FFF79EFF34432B7830
:101E3000204380B20BB1420701D4C30701D540F45F
:101E4000007070BD30B4094A094C034682B007CA1D
:101E50002468019400241C70019D5D6003F1080456
:101E600084E80700184602B030BC7047FCF500005B
:101E700088F2FF1F08B50121062005F079F901213C
:101E8000052005F075F90121042005F071F9012103
:101E90000320BDE8084005F06BB900BF10B5032072
:101EA0000C4601F0010105F04FF9C4F34001042094
:101EB00005F04AF9C4F38001052005F045F9C4F3A3
:101EC000C0010620BDE8104005F03EB910B50C4633
:101ED000B1FA81F14909032005F036F9A4F10101B5
:101EE000B1FA81F14909042005F02EF9A4F10201AB
:101EF000B1FA81F14909052005F026F9A4F10301A1
:101F0000B1FA81F149090620BDE8104005F01CB97D
:101F1000044B82B01B680193019B43600122027055
:101F200002B0704788F2FF1FF0B54C1E012C83B041
:101F3000034608D91349114000291EDB1846FFF754
:101F4000C5FF03B0F0BD104D46682C680094023107
:101F5000009C50F82170A11B8F42F2D82C680178A8
:101F60000194019C446081F0010101700029E1D1DC
:101F70000F21FFF7ABFF03B0F0BD013961F00301A2
:101F80000131DBE70300008088F2FF1F70B50025F8
:101F900004460E460570457029462022023009F09D
:101FA00071F929464FF4C05204F1220009F06AF990
:101FB00004F5C150083002F06BF841F624032046C6
:101FC000E65070BD30B5054641F6240489B0295964
:101FD000B04802F039FA2A59AE496846132302F094
:101FE000B3F905F5C15408AA083405F5C25012F832
:101FF000143D9DF804500299237325710230A160AD
:1020000004F10D0312F8011F03F8011B9842F9D1E6
:10201000079BE361684602F049F81A229E49204670
:1020200001F0BCFF204604F055F91A229B492046D6
:1020300001F0B4FF204604F04DF91A2298492046D9
:1020400001F0ACFF204604F045F91A2295492046DC
:1020500001F0A4FF204604F03DF91A2292492046DF
:1020600001F09CFF204604F035F91A228D492046E4
:1020700001F094FF204604F02DF91A2288492046E9
:1020800001F08CFF204604F025F91A2283492046EE
:1020900001F084FF204604F01DF91A227E492046F3
:1020A00001F07CFF204604F015F900227F4920460C
:1020B00001F074FF204604F00DF932227C492046DD
:1020C00001F06CFF204604F005F900227749204614
:1020D00001F064FF204604F0FDF8282275492046EF
:1020E00001F05CFF204604F0F5F8242272492046F6
:1020F00001F054FF204604F0EDF81A226F49204603
:1021000001F04CFF204604F0E5F827226C492046F8
:1021100001F044FF204604F0DDF8302269492046F2
:1021200001F03CFF204604F0D5F82E2266492046F7
:1021300001F034FF204604F0CDF80D22634920461B
:1021400001F02CFF204604F0C5F8352260492046F6
:1021500001F024FF204604F0BDF81A225D49204614
:1021600001F01CFF204604F0B5F832225A492046FF
:1021700001F014FF204604F0ADF813225749204621
:1021800001F00CFF204604F0A5F800224749204644
:1021900001F004FF204604F09DF80B225049204630
:1021A00001F0FCFE204604F095F80F224D49204630
:1021B00001F0F4FE204604F08DF80F224A49204633
:1021C00001F0ECFE204604F085F80E224749204637
:1021D00001F0E4FE204604F07DF80E22444920463A
:1021E00001F0DCFE204604F075F80F22414920463C
:1021F00001F0D4FE204604F06DF80E223E49204640
:1022000001F0CCFE204604F065F811223B4920463F
:1022100001F0C4FE204604F05DF80F223849204644
:1022200001F0BCFE204604F055F80F223549204647
:1022300001F0B4FE204604F04DF80E22324920464B
:1022400001F0ACFE204604F045F80E222F4920464E
:1022500001F0A4FE204604F03DF80F222C49204650
:1022600001F09CFE204604F035F80E222949204654
:1022700001F094FE204604F02DF80C222649204659
:1022800001F08CFE204604F025F8204601F010FFF6
:1022900009B030BDC0EFFF1F08F6000024F60000B3
:1022A00040F600005CF6000078F60000F0FC00004C
:1022B00094F60000C8F60000F4F600001CF70000D9
:1022C00038F7000060F7000094F70000C4F7000042
:1022D000D4F700000CF8000028F800005CF80000BB
:1022E00070F800007CF800008CF800009CF80000FA
:1022F000ACF80000BCF80000CCF80000DCF80000EE
:10230000F0F8000000F9000010F9000020F90000CA
:1023100030F9000040F9000050F900002DE9F04FBD
:1023200000218FB080460170417002A804F080F94E
:1023300041F624030EAE08F5C15558F80320C849EC
:10234000012306A802F000F8083516F8143D089A93
:102350009DF81C10AA6005F10D0408F5C2572B73F7
:10236000297123463246023712F8011F03F8011B78
:102370009F42F9D10D9BEB6106A801F097FE4FF04B
:10238000000AD146284601F0FDFD00283ED028462F
:1023900001F016FEC1B25B2900F0DE80212900F0B9
:1023A000EC80B9F1010F00F0EE80B9F1020FE9D134
:1023B0000A2940F0E280202102A804F0D9F9A949B5
:1023C00006A804F035F906A902A804F0C7F9814669
:1023D00006A804F0EDF8B9F1000F0CD098F8013020
:1023E000002B00F0378198F800300133002288F884
:1023F000003088F801209C4902A804F043F92846DF
:102400004FF0000901F0BEFD0028C0D1284601F0C0
:102410004FFE1323954A924906A801F095FF9DF8B7
:102420001C3008999DF824202B71A96033462A732B
:1024300013F8012F04F8012BA742F9D10D9BEB6192
:1024400006A801F033FE05228949284601F0A6FDC1
:10245000284603F03FFF0B228649284601F09EFDE7
:1024600000230A2298F80010284603F043FF28466C
:1024700003F030FF00227C49284601F08FFD2846FA
:1024800003F028FF98F80030002B4DD008F1C0066B
:1024900000270A2278490137284601F07FFD394696
:1024A000284603F067FF284603F014FFA6F1C00496
:1024B000B4F926307149002B4FF00102284622DD85
:1024C00001F06CFDB4F92210284603F053FF0222FC
:1024D0006B49284601F062FDB4F92410284603F048
:1024E00049FF02226649284601F058FDB4F926103A
:1024F000284603F03FFF01226249284601F04EFDC5
:10250000284603F0E7FE0634A642D1D10022564900
:10251000284601F043FD284603F0DCFE98F8003021
:10252000BB4206F5C076B4DC1A225749284601F0B2
:1025300035FD98F8011000230A22284603F0DAFE40
:10254000284603F0C7FE284601F0B2FD02A804F0B9
:102550002FF80FB0BDE8F08F98F801301F2B05D889
:1025600098F8003013B14FF001090BE7B9F1010FF2
:102570000DD0B9F1020F7FF405AF02A804F0C4F842
:102580004FF00209FEE62C2944D05D2905D002A8AF
:1025900004F0BAF84FF00109F4E698F800B098F8A2
:1025A00001900BF1FF3B02A804F030F909EB490957
:1025B0000BEB4B0309EB8313534408EB43032A490A
:1025C000588402A804F05EF898F800E098F801201A
:1025D0000EF1FF3303EB4303DB0102EB420103EB9C
:1025E000410141440132D2B2888C02EB420C03EB30
:1025F0004C030FFA8EFE01384344888488F801208A
:10260000DB8C38F81E204FF0000A134428F81E30E7
:10261000D146B7E698F8003098F801B0013B02A81F
:10262000019304F0F3F8019B0F490BEB4B0B03EB09
:1026300043030BEB8313534408EB4303BAF1000F3E
:10264000588402A80CBF4FF0010A4FF0020A04F0B0
:1026500019F897E698F80030002B7FF4CCAEC4E66A
:10266000C0EFFF1F60F90000F0FC000064F90000FB
:1026700070F9000078F90000A0F90000ACF9000042
:10268000B0F90000B4F9000084F9000001B9704706
:1026900010B541F6240304460648E15801F0C8FE8F
:1026A00010B92046FFF78EFC2046BDE81040FFF72A
:1026B00035BE00BFC0EFFF1FF8B50446144D2426F9
:1026C00000234FF0320E0122A67127204FF48076AE
:1026D000A4F808E023706370A370E370E3720F4600
:1026E000A072227162712946324604F10C0004F096
:1026F000F1FA3246A91904F5867004F0EBFA04F5F4
:10270000047001F0C5FCC4F80C722046F8BD00BF8F
:10271000B8F900002DE9F043002191B00646C172DE
:10272000684603F085FFD6F80C22A74908A80123C4
:1027300001F00AFE10AA9DF8240012F8143D0A992F
:1027400086F8140286F81C32C6F8181206F21D2309
:1027500006F22A2012F8011F03F8011B9842F9D152
:102760000F9BC6F82C3208A801F0A0FC00252F46CC
:1027700006F50474204601F005FC60B3204601F024
:102780001FFCC1B25B292FD021293FD0012D30D0B1
:10279000022DEFD10A2939D12021684603F0E8FF44
:1027A0008A49804608A803F043FF08A9684603F059
:1027B000D5FF054608A803F0FBFE002D4FD00123EE
:1027C000F3708349684603F05DFF2046002501F061
:1027D000D9FB0028D2D1204601F06AFC684603F0FC
:1027E000E7FE11B0BDE8F083F37A0F2B0AD801257C
:1027F000C0E72C2922D05D290DD0684603F084FF64
:102800000125B7E7012DF8D0022DB3D1684603F0BA
:102810007BFF0225AEE7F57A684603F0F7FF07EB8A
:10282000C50506EB45056A49A881684603F02AFFFD
:10283000F37A00270133F3723D469BE796F80B804D
:10284000684603F0E3FF07EBC80806EB4808604959
:10285000A8F80C006846013703F014FF8AE75D49C9
:1028600008A803F0E5FE08A9684603F077FF0546CF
:1028700008A803F09DFE15B101237370A1E7564926
:1028800008A803F0D5FE08A9684603F067FF0546CF
:1028900008A803F08DFEB5B10123B8F1000FB370A5
:1028A0008FDD4246694608A803F0A8FF08A803F098
:1028B000ADFF308108A803F07BFE3389042B28D8B4
:1028C000052333817DE7454908A803F0B1FE08A937
:1028D000684603F043FF054608A803F069FE1DB3F0
:1028E000B8F1000F7FF76DAF4246694608A803F0C4
:1028F00085FF08A803F08AFFB07208A803F058FE0D
:10290000B37A0B2B0DD9482B7FF65BAF4823B372FC
:1029100057E7B3F5FA6F7FF654AF4FF4FA6333819C
:102920004FE70C23B3724CE72D4908A803F080FE53
:1029300008A9684603F012FF054608A803F038FE10
:1029400015B1012333703CE7264908A803F070FE57
:1029500008A9684603F002FF814608A803F028FE94
:10296000B9F1000F3FF42DAFB8F1000F18DD42466A
:1029700004A8694603F042FF1B4908A803F058FE6B
:1029800008A904A803F004FF804608A803F010FE7D
:10299000B8F1000F06DD757104A803F009FE10E719
:1029A00035710EE7114908A803F042FE08A904A8F2
:1029B00003F0EEFE804608A803F0FAFDB8F1000F20
:1029C000EADD3571E7E700BFC0EFFF1F30FC000014
:1029D000F0FC000038FC000040FC000048FC000057
:1029E00050FC000058FC000064FC00006CFC00007F
:1029F00010B5044688B0D0F80C129E4801F024FDB2
:102A0000D4F80C229B496846132301F09DFC08AAC8
:102A10009DF8040012F8143D029984F8140284F819
:102A20001C32C4F8181204F21D2304F22A2012F8F2
:102A3000011F03F8011B9842F9D1079BC4F82C32FF
:102A4000684604F5047401F031FB3C228A492046B3
:102A500001F0A4FA204603F03DFC3C2287492046C1
:102A600001F09CFA204603F035FC3D2284492046C3
:102A700001F094FA204603F02DFC3D2281492046C6
:102A800001F08CFA204603F025FC3C227E492046CA
:102A900001F084FA204603F01DFC00227B49204609
:102AA00001F07CFA204603F015FC3E2278492046CE
:102AB00001F074FA204603F00DFC3E2275492046D1
:102AC00001F06CFA204603F005FC3E2272492046D4
:102AD00001F064FA204603F0FDFB3E226F492046D8
:102AE00001F05CFA204603F0F5FB3D226C492046DC
:102AF00001F054FA204603F0EDFB00226349204622
:102B000001F04CFA204603F0E5FB282265492046F7
:102B100001F044FA204603F0DDFB332262492046EF
:102B200001F03CFA204603F0D5FB2F225F492046F6
:102B300001F034FA204603F0CDFB33225C492046F5
:102B400001F02CFA204603F0C5FB19225949204612
:102B500001F024FA204603F0BDFB00224B49204639
:102B600001F01CFA204603F0B5FB1522524920461D
:102B700001F014FA204603F0ADFB15224F49204620
:102B800001F00CFA204603F0A5FB19224C4920461F
:102B900001F004FA204603F09DFB19224949204622
:102BA00001F0FCF9204603F095FB1A224649204625
:102BB00001F0F4F9204603F08DFB1A224349204628
:102BC00001F0ECF9204603F085FB1D224049204628
:102BD00001F0E4F9204603F07DFB19223D4920462F
:102BE00001F0DCF9204603F075FB19223A49204632
:102BF00001F0D4F9204603F06DFB18223749204636
:102C000001F0CCF9204603F065FB18223449204638
:102C100001F0C4F9204603F05DFB1922314920463A
:102C200001F0BCF9204603F055FB18222E4920463E
:102C300001F0B4F9204603F04DFB13222B49204646
:102C400001F0ACF9204603F045FB1D22284920463F
:102C500001F0A4F9204603F03DFB26222549204639
:102C600001F09CF9204603F035FB204601F020FAE4
:102C700008B010BDC0EFFF1F74FC0000B4FC0000E2
:102C8000F4FC000034FD000074FD0000F0FC0000C6
:102C9000B4FD0000F4FD000034FE000074FE0000EE
:102CA000B4FE0000F4FE000020FF000054FF00000E
:102CB00084FF0000B8FF0000D4FF0000ECFF00001C
:102CC00004000100200001003C0001005800010048
:102CD0007400010094000100B0000100CC0001006C
:102CE000E800010004010100200101003C01010095
:102CF000500101007001010010B581B900F10A0313
:102D000000F5857403F11001B3F9022123F8022FB5
:102D10008B42F9D19C42F5D11023C37210BD0446F9
:102D2000D0F80C12054801F083FB10B92046FFF7DC
:102D30005FFE2046BDE81040FFF7ECBCC0EFFF1F70
:102D400038B505460C460B20012104F011FA6C74CD
:102D500004B938BD01210920BDE8384004F008BAA3
:102D600030B5437C017483B004460D4613B109208D
:102D700004F0EAF92DB929460B2004F0E5F903B077
:102D800030BD01210B2004F0DFF9034B1B680193D8
:102D9000019BA36003B030BD88F2FF1F10B5037C18
:102DA00084B004467BB1164B81681B680393039B78
:102DB000C2685B1A9A4201D304B010BD0021FFF72C
:102DC000CFFF04B010BD02F0F7FE204602F02CFF4A
:102DD000E07470B961690A4B1B680293029B591A2F
:102DE00013298CBF002101210B2004F0ADF904B0A0
:102DF00010BD034B1A68019201996161ECE700BFB5
:102E000088F2FF1F38B5044600F581600D4601F0D9
:102E10003FF90023C4F80052C4F80434204638BDFA
:102E200070B584B00C466846444903F001FC69461D
:102E3000204603F0ADFC0546684603F0B9FB002DC3
:102E40002EDD3F49684603F0F3FB6946204603F058
:102E50009FFC0546684603F0ABFB002D66DD21466E
:102E60002B460022684603F0A5FC684603F0D4FC1C
:102E70000446684603F09CFB3249204607F0F4FC08
:102E8000314907F0F1FC06F091FF02460B460020A5
:102E90004FF0804105F06CFD07F0D4FA04B070BD2E
:102EA0002A49684603F0C4FB6946204603F070FCDB
:102EB0000546684603F07CFB002D33DD2349684658
:102EC00003F0B6FB6946204603F062FC05466846FF
:102ED00003F06EFB2B4621460022684603F06AFC95
:102EE000684603F099FC0646684603F061FB2146FC
:102EF0006A1C684603F082FC684603F08DFC0446B9
:102F0000684603F055FB3046002107F08DFD90B96F
:102F10000021204607F088FD68B92146304607F0B9
:102F2000A3FCBBE7204603F077FCB7E7204603F09D
:102F300073FC0446A0E7002004B070BDD0F7000089
:102F4000F8FB00000000C842000040419801010069
:102F500070B582B00446FFF763FF0A2106461D489C
:102F600005F03AF9D4F804141B4803F003FA0421DD
:102F70001A4805F031F9304606F018FF04250B46D3
:102F800002460095144803F0FFF9134803F0A2F934
:102F9000D4F8045404EB85034FF080413046C3F865
:102FA000046207F04BFD88B101357F2DC4F804544D
:102FB00002DC002002B070BD4921094805F00CF97F
:102FC000054803F087F9012002B070BD012002B06E
:102FD00070BD00BF9C01010000C0FF1FA8010100DF
:102FE000B0010100FFFFFFFF2DE9F047D0F80474A6
:102FF000022F82B0814650DD00EB87034649D3F8AB
:103000000442204607F024FD002870D1204606F037
:10301000CDFECDE90001384607F01EFBA9F10408FA
:1030200082466FF0440423E02946304607F0C2F997
:1030300094FBF7F506F0A8FE02460B46DDE9000119
:1030400005F096FC07F0FEF9002C07FB154501463C
:1030500043DB324907F054FB014609EB8505013497
:10306000D5F8040207F04CFB3B2C48F8040F30D095
:10307000204607F0F1FA514607F0F6FB06F096FEFF
:1030800005F0EEFB0022002306460D4607F072F91C
:103090000028C9D105F10045C6E7051F00242046D8
:1030A00007F0DAFA1E4907F021FA06F07FFE024621
:1030B0000B4617A1D1E9000105F05AFC0022194B7B
:1030C00006F0C8FE07F0BEF90134802C45F8040F65
:1030D000E5D1484602B0BDE8F087104807F0C4FBD0
:1030E0003D44014695FBF7F307FB1355B5E7242153
:1030F0000D480E4C05F070F80D4803F0EBF8002376
:10310000D9F80474CDE9003485E700BFAFF300803F
:10311000000000A08FF3F03F77CC2B320000DC439F
:1031200000008A4200807B40FC0101000000F03F6B
:1031300000C0FF1FF0B58DB00746D0F800224F4900
:1031400004A8012301F000F90CAA9DF8140012F85C
:10315000143D069987F80C0487F81434C7F8101446
:1031600007F2154307F2224012F8011F03F8011B72
:103170008342F9D10B9BC7F8243404A800F096FFD2
:1031800001264FF07E53C7F804323D49C7F8046466
:10319000684603F04DFA002104A803F049FA07F548
:1031A00081640025204600F0EDFE68B1204600F065
:1031B00007FFC1B2D5B1B1F10A05204618BF0125FC
:1031C00000F0E0FE0028F1D1204600F071FFD7F8B2
:1031D0000454012DD4BF0025012504A803F0E8F90B
:1031E000684603F0E5F928460DB0F0BD21290BD063
:1031F000012E0DD0022E19D0032ED3D10A2936D09C
:10320000684603F081FACDE7032E1CD00125C9E7FB
:103210000A29F5D1029B2BBB1A4904A803F032FA04
:103220001749684603F02EFA0226BBE70A29E7D1C0
:10323000684603F0EBFA0028CFD01149684603F046
:1032400021FA0326AEE7029B012BDFD969463846F7
:10325000FFF77EFE0028B7D10949684603F012FA4D
:1032600001259FE7694604A803F004FAD8E76946F8
:103270003846FFF76DFE0028DFD0A5E7C0EFFF1F3F
:10328000F0FC00002402010010B504460548D4F803
:10329000001201F0CDF800B910BD2046BDE8104085
:1032A000FFF748BFC0EFFF1F2DE9F04F002183B0AB
:1032B000054602F0A1FD0090002800F0FB802B7F66
:1032C000002B00F08C80009A02F5827302F1040A50
:1032D0009A4501937CD2DDF804E056E02B7F022B67
:1032E00000F08280032B66D0042B00F08880052B31
:1032F00000F09680062B00F0E080072B00F0A18004
:10330000012B00F0B2806B6A2A6A5B1403EBA232D5
:103310009C1818191F1803EB070C03EB0C069919DE
:103320000B444FF6FF7BDAF80090DAF8048032FBAA
:1033300009F234FB19F4C2EA044230FB08F037FB0F
:1033400018F7C0EA0747DAF808003CFB00F0DAF8A3
:10335000084036FB14F6C0EA0646DAF80C0031FBEA
:1033600000F133FB10F3C1EA03438AE88400CAF892
:103370000860CAF80C302A6A6B6AA5F81EB01344BC
:103380000AF1100A2B62D64522D9E98B0029A5D073
:103390006B6A2A6A5B1403EBA2329C1818191F1877
:1033A00003EB070C03EB0C0601F1FF3B99191FFA25
:1033B0008BFB0B44B7E72B6BEA8DEA834FF00401DC
:1033C000D64503F14043297793FBF2F36B62DCD8D7
:1033D000009C28460022214602F0E8FC204603B06B
:1033E000BDE8F04F02F0B8BCAB8DEB83002BE2D010
:1033F00003234FF080422A6269622B77C3E72B6B6D
:1034000069624FF005022A779A132B621146134620
:10341000164694461746104614464FF6FE7B82E742
:103420006B6A2A6A5B1403EBA2329C1818191F18E6
:1034300003EB070C03EB0C0699190B444FF6FE7BCC
:1034400071E72B8D2962EB83D3B103F1FF3B4FF082
:1034500001022A770B461FFA8BFB69620E468C46E7
:103460000F4608460C460A465DE76B8DEB834FF02E
:1034700002022A774FF0804292FBF3F36B6282E7FD
:10348000B5F82AB04FF0804393FBFBF35A14540075
:103490001019171802EB070C02EB0C060BF1FF3B9F
:1034A00091194FF002086B6285F81C801FFA8BFBA4
:1034B000531838E703B0BDE8F08F019B29775345D7
:1034C00086D9CAF80010CAF80410CAF808100AF120
:1034D000100A53454AF8041CF3D879E772B6037F03
:1034E000012B0DD9C28E5AB1072B07D0036AC283B4
:1034F00007215B42017793FBF2F2426262B67047AA
:10350000038DC3830022026223B101234262037749
:1035100062B67047428DC28302214FF0804301772B
:1035200093FBF2F3436262B6704700BF10B50446E6
:1035300002F0B4FD204610BD024A0349034807F0DB
:10354000EBBA00BFFCBDFF1F2D3500003CEFFF1F95
:1035500038B5074D074C08482A46214607F0DCFAE3
:103560002A4621460548BDE8384007F0D5BA00BFD5
:10357000FCBDFF1F2D35000044EFFF1F4CEFFF1F68
:10358000024A0349034807F0C7BA00BFFCBDFF1F4A
:103590002D35000054EFFF1F024A0349034807F08E
:1035A000BBBA00BFFCBDFF1F2D3500005CEFFF1F45
:1035B000024A0349034807F0AFBA00BFFCBDFF1F32
:1035C0002D35000064EFFF1F024A0349034807F04E
:1035D000A3BA00BFFCBDFF1F2D3500006CEFFF1F1D
:1035E0002DE9F8434FF00008064600F1180547465C
:1035F00041463046002F4FD002F0F2FBF0B12C686C
:10360000B4F5803F07F1040100F1040E07F5827C58
:1036100027D05EF8042B34FB02F334FB12F903F3DA
:103620000F0209F30F03C2EA03430A6893FA12F385
:1036300041F8043B8C45ECD802F08EFB08F1010800
:10364000B8F1040F05F10405D2D1002F40D0304667
:103650003946002202F0AAFB3846BDE8F84302F0E2
:103660007BBB07F10C0100F10C0451F8083C54F845
:10367000082C93FA12F341F8083C54F8042C51F842
:10368000043C93FA12F38C4541F8043C04F108041D
:1036900001F10801E9D8CFE702F0AEFB07460028A8
:1036A000CCD02868B0F5803FC8D0391D07F58274AA
:1036B0000B6830FB03F230FB13F302F30F0203F34A
:1036C0000F03C2EA034341F8043B8C42F0D8B5E74C
:1036D000BDE8F883024A0349034807F01DBA00BF5A
:1036E000FCBDFF1F2D35000074EFFF1F10B500213A
:1036F00002F076FB70B172B60A4B1A6872B10A49D1
:103700000C6844B11C60086062B61046BDE8104009
:1037100002F022BB10BD086062B610BD186062B630
:1037200010BD00BF8CEFFF1F7CEFFF1F38B5184B9B
:1037300018491A68184C12681B79184D0B70A24270
:10374000286836BF2246A4F5807202F58074C0B1A5
:10375000011D31F9023B03F500431B1122F8023B26
:103760009442F6D802F0F8FA0D4B0022196829604D
:103770001A600C4B1B781BB10B4B4FF080421A6048
:1037800038BD4FF4006322F8023B9442FBD8F0E7C7
:1037900080EFFF1F1F800040C8B5FF1F8CEFFF1F89
:1037A0007CEFFF1F88EFFF1F08E200E0F8B5012162
:1037B0004248434E02F00EFC424A434913688020BF
:1037C00043F4805313600024087040F608053480E9
:1037D0000120083403F0D2FCA3B2AB421CB2F6D1F4
:1037E0003A4B1B685B0208D5394B1A6848F6A2733E
:1037F000134048F6A27293424FD03449344A0B68C2
:10380000344F354D3548364C43F480030B604FF050
:10381000010E40F23F4648F6A37140F20113C7F88B
:1038200000E02E60116014600360244C2D4A236870
:1038300023491A6002259D802279196102F1804294
:1038400002F50432284EDE6040F20111D9804FF4B7
:10385000807000210627B026D8829D60D883998287
:103860009F8399611170167002F05AFB22791F4BE9
:103870001F4E187053119B0003F160431D4C3270B2
:1038800003F5614302F1100002F01F0701211A4DF8
:1038900044F82050B9401960F8BD0F4B1A6840F247
:1038A0003F439A42A9D10B4B1B68012BA5D10B4B6F
:1038B0001A6840F201139A429FD1B6E780EFFF1FCA
:1038C00000C00C402C80044021C00C403C800440CF
:1038D000006003400C60034004600340106003403C
:1038E000A28F0100C8B4FF1F00FEFFFF88EFFF1F7B
:1038F0001B80004000B8FF1F2D370000024A03491B
:10390000034807F009B900BFFCBDFF1F2D350000BB
:1039100080EFFF1F024A0349034807F0FDB800BFCC
:10392000FCBDFF1F2D35000090EFFF1F024A034929
:10393000034807F0F1B800BFFCBDFF1F2D350000A4
:1039400098EFFF1F024A0349034807F0E5B800BF9C
:10395000FCBDFF1F2D350000A0EFFF1F024A0349E9
:10396000034807F0D9B800BFFCBDFF1F2D3500008C
:10397000A8EFFF1F024A0349034807F0CDB800BF74
:10398000FCBDFF1F2D350000B0EFFF1F024A0349A9
:10399000034807F0C1B800BFFCBDFF1F2D35000074
:1039A000B8EFFF1F2DE9F04F436AC469866985B0FF
:1039B0002BB906EBC414846105B0BDE8F08F054651
:1039C000D0F8208002F074F90746002800F0478103
:1039D000B5F9323006EB0802009200F10408082B1A
:1039E00031D8DFE813F09B00B80000011401090092
:1039F000C500DB00E9005000EE6A002E00F02D81CA
:103A0000D5F824C0009900F5827E40460A0E531C6A
:103A1000B3F5807F14BF5B000023C1F30F29F35E71
:103A200036F9122009FB03F3C9F5803909FB02338B
:103A300053FB0CF320F8023B70452144E6D1009B78
:103A400003EBC41300932C6A009AB5F93430141BAD
:103A5000AC616BB107F5827101E0B5F93430B8F9AA
:103A60000020134403F30F0328F8023B4145F4D828
:103A700028460022394602F099F9384605B0BDE8DB
:103A8000F04F02F069B9AB6ACDF808804FEA5309EC
:103A9000190C6FEA09020192C1F57F434FF0FF3A1A
:103AA0004646FF33D5F824C0BAFBF3F3063007F5DA
:103AB000837B009ABAFBF1FA03979E46DDF80480F7
:103AC00020E0C9EB02073F0C0EFB07F76FF0004147
:103AD00009EB0203C91B1B0C09140AFB03F30CFBC3
:103AE00001F103F1004390454FEA21414FEA23439E
:103AF00040F2AE80318002308345224406F1020656
:103B000000F0B280130C0AFB03F31B0C0CFB03F355
:103B100091454FEA1343D4D93380ECE7D5F824C05C
:103B2000554E009900F5827E40460B0E5A1C36F920
:103B3000139036F91220C1F30F2ACAF5803309FB1E
:103B400003F30AFB023353FB0CF320F8023B8645D8
:103B50002144EAD173E76E6A009A00F58270434609
:103B600036FB12F123F8021B83422244F8D166E7A8
:103B70006E6A26F34F06A86A009A0FFA86FEBB1DEE
:103B8000764207F5837190428CBF23F802EC23F84C
:103B9000026C02338B422244F5D150E7686A009AE6
:103BA00007F58276C043434630FB12F123F8021B2F
:103BB000B3422244F8D142E700F5827A009BC14625
:103BC00003E0D14533463FF43AAFB5F9302029F848
:103BD000022BE618F5D3686A02F0E6FC6B6AA0EBEC
:103BE00063002886EDE76E6A26F34F06009A30B22E
:103BF000BB1D764207F58371002AB4BF23F8026C1F
:103C000023F8020C023399422244F5D117E7811DB3
:103C1000D5F824C0009A00F5837009E00CFB03F38B
:103C20001B1421F8023C0231884222443FF407AFC2
:103C3000930F013B012B4FEAE233EFD8D30BC3F5CF
:103C40007F43FF330CFB03F31B0C21F8023CEAE734
:103C50000CFB03F31B1433804DE702F07DF8AB69D6
:103C600003EBC413AB61A7E6009BDDF80880039F5C
:103C700003EBC4130093E6E62C02010010B4047FAA
:103C80004160022CC26002D010BC02F021BA8368ED
:103C900010BC1847F0B4464B464A186BDC6A0179F1
:103CA0001170454922790A709A6A00790870002AD1
:103CB00046D05968C9688A423ED82168CC8B240412
:103CC00002F1FF3065D4C0F30E00C883C88B80B208
:103CD000C882196B0968C88B000452D4C2F30E0065
:103CE000C883C88B002480B212F1FF32C88218BF8B
:103CF00001229C62D96A2E4809680D6800F12404EB
:103D0000A54236D00068C46814F0804F0C680D6876
:103D100015BF248824780235013544F000440D6035
:103D20004463196B254B09791970214912B1CA6A8C
:103D300012791A70F0BC7047521A9A620122D9E7C0
:103D4000586B196805681E4C0A63CC62CC682D68F4
:103D50001C4E24F080440327B542CC6083F82570C4
:103D60001FD1037F4260022BC2601ED0F0BC02F064
:103D7000AFB9016890F82400CC6840F00040486377
:103D8000CFE7CC8BC2F3080004F47E442043C88301
:103D9000A7E7CC8BC0F3080004F47E442043C8831B
:103DA00094E72B461146F0BC18478368F0BC1847CF
:103DB00004BEFF1F1F8000401C8000401B8000408D
:103DC00000000FFF7D3C000090E80C00F0B41C6880
:103DD00059682568164F174E29432160164D17491B
:103DE0001760D66015611160417A154A5C180A3176
:103DF00094F8244053F8215002EBC40149680D6047
:103E0000017A5C1803EB8101247ECD6902EBC401C9
:103E100049680D60817A581803EB810390F83000EF
:103E2000596B02EBC002F0BC53681960704700BFC9
:103E300001401F00011000380110007800001F80B1
:103E4000D4050100204A43689A42F0B40FD0427A68
:103E50001A4492F82420914207D093F824408C42CF
:103E600015D093F825408C422AD0F0BC70470B291E
:103E700007D00729EBD1154C227842F001022270BD
:103E8000E5E7124C227822F001022270DFE70024DD
:103E900021461E685D6836682E420FD00C4D05EB3A
:103EA000C202002756685A18376092F8242005EBA2
:103EB000C2050A316A6853F8213013604472D4E7AE
:103EC00001242146E5E700BF6004010085F2FF1FE1
:103ED000D4050100204A43689A42F0B40FD0827A98
:103EE0001A4492F83020914207D093F830408C4227
:103EF00015D093F831408C422BD0F0BC70470D297F
:103F000007D00E29EBD1154C227842F00402227022
:103F1000E5E7124C227822F004022270DFE7002449
:103F200021461E685D6836682E4210D00C4D05EBA8
:103F3000C202002756685A18376092F830200C31B8
:103F400005EBC20503EB81036A685B68136084724A
:103F5000D3E701242146E4E76004010085F2FF1F56
:103F6000D405010000207047704700BF10B582B033
:103F700002AB026803F8011D546819460122A047EC
:103F800002B010BDC06938B18369C06847F6FF72DE
:103F9000181A904228BF1046704700BFC36910B579
:103FA00004463BB100201871E06901F06FF9E36944
:103FB0001B791BB101232371002010BD10BD00BF70
:103FC000C06978B100B583B001220DF1070100F09E
:103FD00005FF01280CBF9DF807004FF0FF3003B02C
:103FE0005DF804FB4FF0FF30704700BFC369C3B1F9
:103FF00010B582B00446012218460DF1070100F009
:10400000EDFE012803D04FF0FF3002B010BDE06993
:104010009DF80740C168013900F092FF204602B0C8
:1040200010BD1846704700BFC06908B100F0BABFA4
:10403000704700BF2DE9F04105464FF47A731348ED
:10404000AB60002328602B712B7324200C46904614
:1040500006F0A4FDE861B0B1064604F1200E206828
:104060006168A268E36837460FC7103474453E465E
:10407000F5D12068386041460C2205F10D0007F0AB
:10408000FDFC00236B762846BDE8F081E0040100CA
:104090004FF47A7204498260002201600271027357
:1040A000C2614273704700BFE0040100704700BF67
:1040B000C36953B110B50446184600F017FEE06915
:1040C00006F074FD0023E36110BD704730B58BB07E
:1040D00000240A460A4D8DF808400146012301A834
:1040E0008DF80A40019501F091F8A04218BF012413
:1040F00002D001A800F0FAFD20460BB030BD00BF91
:10410000040501000AB90120704708B501F0A6F8BE
:10411000003018BF012008BDF0B50E68835D2F2B5D
:1041200008BF0136841902F1FF3E002523782F2BAA
:10413000274604F1010408D03BB101350C2D06F1EE
:1041400001060EF8013FF1D18719002353553B7842
:104150002F2B04BF013687190E603878003018BF46
:104160000120F0BD2DE9F04F99B08846264D069507
:1041700000218DF81C1083469246994644468DF8DE
:104180001E108DF840108DF8421001910F9506AE6B
:1041900005E000F0ABFDFDB1234634461E4602AA01
:1041A00001A95846FFF7B8FF80F00102D2B24B4692
:1041B00002A905462046D04721460746012302AA08
:1041C00070B13046ADB101F021F8444505462046B6
:1041D000DFD10DB10FACDFE7002019B0BDE8F08FE3
:1041E0004445F9D0204600F081FD384619B0BDE8BD
:1041F000F08F444506D0204600F078FD012019B02C
:10420000BDE8F08F0120E8E70405010038B50A4653
:104210000121044600F070FA08B9002038BD251DC0
:1042200028460122214601F0F3FA40B1294604F163
:104230002C0000F0ABFD003018BF012038BD024655
:104240002146284601F0E4FA0028EFD1002038BDCD
:104250002DE9F04F99B04FF00008DFF8E8A08DF895
:104260001C808146043106A8934601938DF81E8078
:104270008DF840808DF84280CDF818A0CDF83CA094
:1042800000F084FD06AE5D460FAF2F21284607F0F3
:1042900055FA441BE4B2294608B32B782F2B02A809
:1042A0001BD00C2C28BF0C24224607F0E7FB18ABD0
:1042B0002344384603F8588C00F018FD012302AA65
:1042C0003146384600F0A2FF88B3304600F00EFDBC
:1042D000334625443E461F46D7E70135D5E70198CA
:1042E00031797279B379B468377DCBEB0505056018
:1042F000F068356989F8041089F80520B16989F8F2
:104300000630F269336AC9F80C004846C9F800A0C3
:10431000C9F80840C9F8105089F81470C9F8181085
:10432000C9F81C20C9F8203019B0BDE8F08F89F811
:10433000040089F806004846C9F800A019B0BDE895
:10434000F08F00BF04050100F0B59DB005461F4683
:1043500001A86B461446FFF77BFF009AA35C144448
:10436000002B42D09DF80A202F4E0A9600238DF88C
:104370002C308DF82E30002A31D00AA83B46224638
:1043800001A900F043FF50B301A800F0AFFC17F003
:10439000060F43D19DF82C700C9B9DF82DE01396D1
:1043A00022469DF82E408DF850708DF8524015939E
:1043B0000D990E989DF83C70109E119C129B8DF8E3
:1043C00051E01691179013A928468DF86070199640
:1043D0001A941B93FFF72EFE28461DB0F0BD284609
:1043E000FFF756FE28461DB0F0BD9DF808700E4E32
:1043F0009DF809409DF80A30039A8DF85070139685
:104400008DF851408DF852301592049905989DF819
:104410001870079E089C099B044AD2E70AA81099C5
:1044200000F08EFDB6E700BF040501009801010011
:1044300010B40C46002300F12C01024A204610BCA7
:10444000FFF790BECD40000010B40C46002300F1F1
:104450002C01024A204610BCFFF784BE0541000033
:10446000064B074ADA620221002259609A7083F8EB
:10447000242083F8302083F832207047C0EFFF1FDC
:1044800004050100052823D8DFE800F00303101617
:104490001C0A124B12484FF038421A60FFF794BCC6
:1044A0000E4B104A1A600E48FFF78EBC0B4B0E4A9B
:1044B0001A600B48FFF788BC084B0C4A1A60084882
:1044C000FFF782BC054B0A4A1A600548FFF77CBC1F
:1044D000024B084A1A600248FFF776BC14F0FF1F2F
:1044E00004BEFF1F0320013800000138011001380D
:1044F000032000380650003810B50121007802F082
:1045000023FE0E4A137893B10D49CB7A0024184646
:10451000147063B1DC0703D50A4A88691060184635
:104520009A0705D4430702D5074B0A6A1A6010BDE3
:10453000064BCA69C87A1A60F4E700BF18F0FF1F7B
:1045400004BEFF1F00E100E008E100E004E100E03C
:104550001E4B1A781AB10078002102F0F5BD70B434
:104560001B4A1C49D47A096801251D70ECB172B64A
:10457000D37ADE071C4606D5174DD4682E68344022
:1045800094612C601C469D0706D5144D13692E6856
:10459000D47A3340D3612B60630705D5104C53693F
:1045A00025682B401362236062B61368DA688A427A
:1045B00007D00C4C1C600C4AD96041F080441C614F
:1045C0001A600078002170BC02F0BEBD18F0FF1F19
:1045D00004BEFF1F14F0FF1F80E100E084E100E053
:1045E00088E100E001403F0000003F80F0B4124845
:1045F000124A036882B016460093009F4FF00045B0
:10460000FF24136843F480631360D5625463D36A54
:10461000002BFCDAB36BDBB2FF2B09D003680193EC
:10462000019BDB1B8B42ECD3002002B0F0BC704737
:10463000012002B0F0BC704788F2FF1F00C00240AA
:10464000F8B50D464FF4967116460446FFF7CEFFB7
:10465000284B1A684FF0004042F4806245F0400158
:104660001A60D8621A465963D36A002BFCDA2149D2
:1046700018204FF000470A6826FA00F342F48062DF
:10468000DBB20A60CF624B63CB6A002BFCDA0838DE
:1046900010F1080FEFD155B3082D0CBF8721FF2172
:1046A000144B1A684FF0004042F480621A60D862DE
:1046B0001A465963D36A002BFCDA0E4A00271646C5
:1046C0004FF00045FF21136843F480631360D56207
:1046D0005163D36A002BFCDAB36BD8B21B0660704F
:1046E00000D4F8BD0137B7F5807FECD1F8BD952136
:1046F000D6E700BF00C002402DE9F0430023934EEF
:10470000027085B083703368019305468846104671
:104710000121019F02F018FD2878012102F028FDF7
:104720002878012102F010FD894A136843F4805370
:1047300013600620FFF7A6FEDFF840E2854B9EF8E7
:104740000BC01A68BCF1000F20D072B69EF80B3077
:10475000DC07194608D58048DEF80C1004682140B3
:10476000CEF8181001601946980709D57B48DEF885
:10477000103004689EF80B102340CEF81C30036004
:10478000490700F1A28062B69EF80BC0DEF8003047
:10479000D968914207D0724818607249DA6042F0D5
:1047A000804018611960704A0A244FF00040FF21D0
:1047B000136843F480631360D0625163D36A002BA3
:1047C000FCDA013C14F0FF04F2D1BCF1000F18D068
:1047D0001CF0010F05D0654BDEF818209EF80BC0C9
:1047E0001A601CF0020F05D0614BDEF81C209EF809
:1047F0000BC01A601CF0040F03D05E4BDEF82020C3
:104800001A602846FFF7A4FE06E033680293029B75
:10481000DB1BB3F5FA6F51D8002211462846FFF78B
:104820000FFF012881466870EFD14FF4D57208213F
:104830002846FFF705FF430726D585F802904FF07D
:10484000000906E033680393039BDB1BB3F5FA6FA3
:1048500034D8002237212846FFF7F2FE4A462921A4
:104860002846FFF7EDFE68700028EBD1AB78022BED
:1048700039D02846FFF740FE4046FFF703FE0124EB
:10488000204605B0BDE8F083374A042194464FF036
:10489000004EFF20136843F480631360C2F82CE0DD
:1048A0005063D36A002BFCDADCF838300139DBB214
:1048B00011F0FF016B70EDD1AA2B0FD02846FFF746
:1048C0001BFE204605B0BDE8F0832B49DEF814300E
:1048D00008680340CEF820300B6054E70223AB7029
:1048E0004FF08049B5E702463A212846FFF7A8FE77
:1048F0000028E3D11C4B1A684FF0004442F4806258
:10490000FF201A601946DC625863CB6A164A002BF6
:10491000FBDA936B144A03F0C003C02B04BF0323DC
:10492000AB70032116464FF00044FF20136843F498
:1049300080631360D4625063D36A002BFCDA0139C0
:1049400011F0FF01B36BF1D193E700BF88F2FF1FB5
:104950003C80044014F0FF1F80E100E084E100E0AF
:1049600001403F0000003F8000C0024000E100E045
:1049700004E100E008E100E088E100E004BEFF1F80
:10498000F0B41549154A0B6882B016460093009F93
:104990004FF00045FF24136843F480631360D56231
:1049A0005463D36A002BFCDAB36BDBB2FF2B43708A
:1049B0000AD10B680193019BDB1BB3F5967FEAD903
:1049C000002002B0F0BC7047A3F1FE00B0FA80F006
:1049D000400902B0F0BC704788F2FF1F00C00240DF
:1049E000F8B58378032B0E46044618BF4E021546D1
:1049F000FFF7AEFD324611212046FFF721FE18B920
:104A00002046FFF7BDFF20B92046FFF775FD0020C7
:104A1000F8BD204B2049214A1A608E4659631A4638
:104A200059631E46596305F5FD70A91C05F5FE770F
:104A3000D36A13F0F00FFBD0C6F834E0B36B01F883
:104A4000013C1B1201F8023C02318F42F0D105F506
:104A50000075A8420DD20F4A1646D36A13F0F00F24
:104A6000FBD0B36B191200F8021BA84200F8013CFE
:104A7000F3D3084B0949084A196019465A63CB6AAF
:104A8000044A13F0F00FFAD02046936BFFF734FD81
:104A90000120F8BD00C00240FFFF009000041F800D
:104AA000F0B4314E33684FF0004743F48063336015
:104AB0003D46F762344671633346511C02F20127CA
:104AC000E26A002AFCDA1A6811F8016C42F480628A
:104AD0001A60DD625E63E26A002AFCDA1A6811F885
:104AE000026B42F480628F421A60DD625E63E7D13E
:104AF0001D49CA6A1C4B002AFBDA1A684FF00045B0
:104B000042F48062FF241A601946DD625C63CB6A5E
:104B1000154A002BFBDA13684FF0004543F480631D
:104B2000FF2413601146D5625463CB6A0E4A002BF2
:104B3000FBDA13684FF0004543F48063FF241360F1
:104B40001146D5625463CB6A074A002BFBDA936B9C
:104B5000DBB203F01F024370A2F10500B0FA80F04F
:104B60004009F0BC704700BF00C0024070B5044669
:104B700071B18378032B0D4618BF4D021646FFF71F
:104B8000E7FC2A4618212046FFF75AFD054620B1CA
:104B90002046FFF7B1FC002070BD3246FE212046C2
:104BA000FFF77EFF0028F3D04FF416712046FFF781
:104BB0001DFD0028ECD02A460D212046FFF740FDC0
:104BC0000028E5D10B4B1A684FF0004542F4806293
:104BD000FF201A601946DD625863CB6A054A002B34
:104BE000FBDA936B13F0FF0FD2D12046FFF784FC62
:104BF000012070BD00C00240014B024A1A6070479C
:104C000014F0FF1F0110013838B590F90530002B62
:104C100003DBBDE8384000F031BC044601210069E7
:104C200000F056FCF8B1257D104B13EB45151AD05A
:104C3000A3790F4A012B9CBFA369EB61E36912685A
:104C40006B831B0CAB8232B105F1160105F1180024
:104C500090472B8B6B82637903F07F036371BDE810
:104C6000384000F00BBC002038BD00BF28F0FF1F0B
:104C70001CF0FF1F10B500F1080204460121006A74
:104C800000F010FD50B1E3693BB96379A268E261BD
:104C900063F07F036371012010BD012010BD00BFD0
:104CA00070B50646FFF7E6FF98B1326AB568117C29
:104CB00053691479023D8D40013B74B11D4402E0FB
:104CC00014F0FF0407D0601900F068FC013C0028D4
:104CD000F6D1002070BD336A197CB0694FF40072C0
:104CE00002FA01F30344B361012070BD82790AB96D
:104CF0000020704710B50446FFF786FF18B1002367
:104D0000A371012010BD002010BD00BF70B44B1E68
:104D100001F10A04202203F8012FA342FBD101383C
:104D20000025072610F8014F2CB32E2C1ED0164A52
:104D300001E09C4217D012F8013B002BF9D1AE42A2
:104D40001FD3A4F121025D2A1BD8A4F16102192A04
:104D500005F1010398BF203C0D44DBB298BFE4B2DB
:104D60002C701D46DEE7002070BC70470A2EFAD07A
:104D700008250A26D6E70B78B3F1200018BF0120DA
:104D8000F2E71846F0E700BF1405010038B5837953
:104D90003BB991F82020102A0D46044603D0202A62
:104DA00010D0002038BD022282714A8CC3615301A9
:104DB000836100230120607123752562A360E36095
:104DC000236138BD03238371496AC16100F1180270
:104DD000284600F037FC0028EBD1E2E7837913B9CD
:104DE0004FF0FF3070472DE9F04F8B464179C907EE
:104DF00083B0054658D5C1688469641A944228BFB7
:104E0000144626460194002C64D01A46022ADFF884
:104E1000E890384FDFF8E4802A6AC1F3080A3FD0EF
:104E20001479013C04EA5124E4B2BAF1000F5ED1D6
:104E3000002C5CD1002951D1E969A960107C52692C
:104E40000239814014440819CAF500746A79B442E1
:104E5000A8BF344653062CD4B4F5007F29D00021D6
:104E600000F036FB00B30AEB090E0EEB040086459A
:104E70000BD00BF1FF32734613F8011B02F8011F30
:104E80009842F9D1CEEB00008344E968361B2144F7
:104E9000E9601FD0AA79022AC1F3080A2A6ABFD1A1
:104EA000506A00EB5120CFE74FF0FF3003B0BDE870
:104EB000F08F3A689042D2D001465A46D8F80000A6
:104EC000FFF78EFD0028EFD0E968361B2144A3448C
:104ED000E960DFD1019803B0BDE8F08F1046A96802
:104EE00005F1080200F076FB0028DDD02A6AA968E7
:104EF000A4E700BF3CBEFF1F28F0FF1F24F0FF1FE8
:104F00008379012B17D930B5C36883B001220DF125
:104F100007010446C3F34315FFF760FF012802D0E1
:104F2000002003B030BDE36804481F3300EB451098
:104F3000E36003B030BD0020704700BF28F0FF1FC2
:104F4000F8B5837913B182698A4201D20020F8BD95
:104F5000022B0F4605461AD007B32B6AE9681C7C62
:104F60004A1E04F109037C1EDA40DC40A24211D93A
:104F7000EB69AB6005F1080606E0A968286A00F055
:104F800029FB013C0028E1D03246002CF5D1EF602E
:104F90000120F8BD0029EBD0A41AEBE7AF60EF6069
:104FA0000120F8BD83790BB1FFF72EBE184670477C
:104FB0008379012B01D000207047F0B54579AC070B
:104FC00083B002461CD585698D420C4618D3D5B1F5
:104FD0002546D6681446FFF7B3FF88B1B5B9E16935
:104FE000206A00F0E7FB58B1E56122E000F0E2FB47
:104FF00030B16FF07042A168206A00F0CBFBC0B9FD
:10500000002003B0F0BD184603B0F0BD01AAA168AE
:10501000206A00F0DFFA0028F2D0206A0F4B90F8E7
:10502000207001994FF6F872102F08BF134699426D
:10503000DCD36379A279A56163F07F036371002AF1
:10504000DED02046FFF7E0FD0028D9D0B542294642
:10505000204628BF3146FFF773FFD2E7F8FFFF0F66
:1050600070B51D4B03EB4116F37A13F0110F02D00C
:1050700012F0420F1ED1194B01751B680361738B2F
:10508000B18A43EA0141C161F37A13F0180315466E
:1050900004460DD1F36983610123837105F00F0389
:1050A000002163716B06A160E1600FD4012070BD27
:1050B000102B01D0002070BD00F11802006A00F032
:1050C000C1FA0028F6D00423A371E7E72046BDE823
:1050D0007040FFF76DBF00BF28F0FF1F3CBEFF1FF1
:1050E0002DE9F04784B001AF06460C46104639461C
:1050F0009946FFF70BFE78B30022216A316213460E
:105100001546A260E260DFF8008108E0E52B1CD0C4
:1051100001460B22384606F01FF888B3E368A269FF
:105120009A421DD92046C3F3431AFFF7E9FE98B10E
:105130000378002BEAD15DB9D8F8003086F814A0C6
:105140003361037823B10125E8E7002DFBD1F3E7B4
:1051500009F01203122B1DD0002004B0BDE8F08727
:1051600009F01203122BF7D1A5B9A379022BF3D0C2
:105170002046FFF795FD0028EED0214C357514E050
:1051800009F03003302BE7D04A4651463046FFF74E
:1051900067FFE2E70121306900F09AF90028DBD0CF
:1051A000347D174B13EB4414D6D020220021204627
:1051B00006F068F897E80700234603C3114923F86F
:1051C000022B0D68120C1A709DB104F10E0104F14E
:1051D0001000A847238AE28963822383E28200F0D9
:1051E0004DF90028B8D04A46317D3046FFF738FFE8
:1051F000B3E742F621034FF400622382E281EBE73A
:1052000028F0FF1F1CF0FF1F3CBEFF1F10B4847965
:1052100014B1002010BC704710BCFFF761BF00BF85
:1052200010B500210446FFF7C3FE08B9002010BDE9
:105230000121206900F04CF90028F7D0237D064AAF
:105240005B01DA42F2D0E52098540021A171BDE85B
:10525000104000F013B900BF28F0FF1F30B58BB02D
:1052600000240A46084D8DF808400146022301A893
:105270008DF80A400195FFF733FF10B101A8FFF741
:10528000CFFF0BB030BD00BF040501002DE9F04F8A
:105290008B46817985B001290746019205D001230B
:1052A0003B71002005B0BDE8F08F42799107F6D53B
:1052B000530708D5FC68B9698C4200F0A880FFF755
:1052C0003FFE0028EBD0019BFC68002B49D0DFF8A3
:1052D0008C91DFF88CA1DDF80480386A0679013EF4
:1052E00006EA542616F0FF06C4F3080442D1002C47
:1052F00040D1B96800296FD1FA69002A7ED0BA601E
:10530000C4F50075ADB245453AD9057C4169023A0C
:10531000AA400E4416441FFA88F51CB9F868BA6909
:1053200090424CD23046012100F0D2F80028B6D08D
:105330004C4404EB050E74450DD00BF1FF31621E99
:105340000EF1FF3611F8010F02F8010F9642F9D164
:10535000C4EB0E04A344FC68B8EB05082C44FC60C5
:10536000BBD1BB69A34257D27A79BC6142F08002BB
:105370007A715AE0C4F50075ADB24545BA68C4D833
:10538000017C4069023A8A400644B5F5007F164424
:10539000C3D1DAF80020964204BF4FF0FF32CAF8BA
:1053A00000202A4A314610685A46FFF7DFFB0028E2
:1053B0003FF475AF0BF5007B4FF40075CBE700F0C1
:1053C0005DF800283FF46BAF2149CAF800600A7805
:1053D00042F001020A70ABE703AA00F0FBF80028D4
:1053E0003FF460AF386A1B4B90F82050039A4FF699
:1053F000F871102D18BF19468A4280D33846FFF73E
:1054000039FC00283FF44BAF386ABA6878E7019B53
:10541000002B7FF45CAF08E00F4B7A791B6823B157
:10542000019B13B142F080027A71120709D5BB7952
:10543000002B3FF434AF3846FFF7E6FB00283FF47B
:105440002EAF019805B0BDE8F08F00BF24F0FF1F1C
:1054500028F2FF1FF8FFFF0F1CF0FF1F28F0FF1FAF
:105460003CBEFF1F00B583B002AB012203F8011D53
:105470001946FFF70BFF03B05DF804FB70B50F4C46
:1054800023780BB9012070BD0D4B0E4D19682868AB
:105490000D4AFFF76BFB70B10C4E316819B9002350
:1054A0002370012070BD2868074AFFF75FFB10B129
:1054B00000233360F3E7002070BD00BF28F2FF1F18
:1054C0003CBEFF1F24F0FF1F28F0FF1F20F0FF1F2E
:1054D00070B50D4D2B6883420E460ED00446FFF783
:1054E000CDFF08B9002070BD084B094A1868214655
:1054F000FFF776FA0028F5D02C60064B1978314377
:105500001970012070BD00BF3CBEFF1F24F0FF1FBB
:1055100028F0FF1F28F2FF1FF8B590F82030C4696B
:10552000102B1A4B05460E4617461B6816D004EB87
:10553000D1149C4216D106F07F06154A42F8267017
:105540001449287E0A78012842F001020A7018D90D
:10555000A968114A0B4413600120F8BD04EB112423
:105560009C4208D000212046FFF7B2FF50B195F8C9
:105570002030102B07D1F6B2054A234622F81670C8
:10558000DEE70120F8BD2346D5E700BF3CBEFF1F84
:1055900028F0FF1F28F2FF1F20F0FF1F10B5044660
:1055A000FFF76CFF78B1084B002103F5007203F898
:1055B000011F9342FBD1054A054913780C6043F063
:1055C00001031370012010BD27F0FF1F28F2FF1FF9
:1055D0003CBEFF1FC36801338B4218D370B590F8EF
:1055E0002030102B154B044616460D46C0691B682B
:1055F0000FD000EBD11098420FD105F07F01104B76
:1056000053F8213023F070433360012070BD002037
:10561000704700EB1120984207D00021FFF758FF98
:1056200050B194F82030102BE7D1E9B2044B33F895
:1056300011303360012070BD002070BD3CBEFF1FE3
:1056400028F0FF1F2DE9F04782B002ADDFF850804F
:1056500045F8041D044691464FF0000A4FF40077C8
:105660004FF6F8760CE094F82030227C0199102B4C
:1056700014BF4346334607FA02F29942924408D2D5
:105680002A462046FFF7A6FF0028ECD102B0BDE86D
:10569000F0870120C9F800A002B0BDE8F08700BF84
:1056A000F8FFFF0F2DE9F04F176883B06FB3013794
:1056B0004FF0000AC36803F1010813B38B46064696
:1056C00091463C46002505E01C461F46F36801351F
:1056D000AB4216D9A04538BF0224214601AA304664
:1056E00038BF2746FFF776FF631CD91B48B1019AE4
:1056F000002AE9D18B4510D01C46F3680135AB4236
:10570000E8D8002003B0BDE8F08FA1F1010ABAFA91
:105710008AFA07684FEA5A1ACCE7012CF1D9F368E4
:1057200001339C42EDD86FF0704221463046FFF7BE
:10573000F3FE0028E5D0A74214D2013C012CE0D9A9
:10574000F36801339C42DCD8621C21463046FFF7E7
:10575000E3FE0028D5D0A74204F1FF3402D0012C8B
:10576000EED1CEE7D9F8001059B10129C9D9F368B3
:1057700001339942C5D83A463046FFF7CDFE00289E
:10578000BFD0C9F80070BAF1000F01D001373760FF
:105790000120B7E701290AD9C3680133994210B43F
:1057A00002D810BCFFF7B8BE002010BC7047002024
:1057B000704700BFF0B5022383B00546134F036066
:1057C0000C464FF6F8760FE0EB6801339C4216D892
:1057D000FFF7A2FE98B195F82030019C102B0CBF6A
:1057E00033463B469C420DD201AA21462846FFF78C
:1057F000F1FE2146002210B1012C2846E4D80020F9
:1058000003B0F0BD012003B0F0BD00BFF8FFFF0FF3
:10581000F8B53E4B054619601446DAB1042A01D9A1
:105820000020F8BD00210846FFF752FE0028F7D0FF
:10583000374B03EB041292F8AE215206F0D11B3421
:1058400003EB0414D4F80A30632BE9D9D4F80640EA
:10585000002CE5D000212046FFF73AFE0028DFD0DB
:105860002B4AB2F80B30B3F5007FD9D1117C002957
:10587000D6D0D389002BD3D0567B002ED0D0002396
:1058800029762E712B74012703E009290B46297410
:10589000C6D007FA03F0B04203F10101F5D1D68A70
:1058A0001B4906B94E6AB2F80EE0AE60A644C5F8D0
:1058B0001CE0B2F81110177C6984480106FB07E66A
:1058C00000F2FF1006EB60206E626861B2F8131000
:1058D0000F4E01B9316A241A0C4424FA03F340F63E
:1058E000F4718B42EB600BD94FF6F4718B4285BF9C
:1058F000D36A6B621023202385F820300120F8BD85
:105900000C2385F820300120F8BD00BF24F0FF1FD4
:1059100028F0FF1F90F8392090F83800101A7047CF
:1059200090F8383090F839209A4205D95A1C03442F
:1059300080F83820187E70474FF0FF30704700BF66
:1059400090F8383090F839209A4286BF1B18187E9C
:105950004FF0FF30704700BF704700BF38B50546B5
:10596000B0F85E0090B195F85D301446C3F12102A5
:1059700094420CD805F13B001844224601F0AAF9E4
:1059800095F85D30234485F85D30204638BD012010
:1059900014462871EEE700BFB0F85E306BB190F8A6
:1059A0005D30202B07D8C218013380F85D3001200C
:1059B00082F83B107047012303710020704700BF3D
:1059C00010B50269D378DBB2D90604463DD5102163
:1059D0005806D17038D503F0040303F0FF02002B02
:1059E00051D03D49626E00230B7084F85D30002A6F
:1059F0005BD0904794F85D30002B56D02369D022BD
:105A00009A70236994F83B201A712369012284F863
:105A10005C200222DA7010BD304B84F860009C429A
:105A20004AD02F4B9C4252D094F8391013791F2939
:105A3000DBB207D82848007820B16018013184F81B
:105A4000391003760223D37010BD5906C3D4917860
:105A500001F0100101F0FF000029DDD013F0010377
:105A60001ED194F85C1094F85D00884281BF4B1CF5
:105A7000091984F85C3091F83B3013712369D02206
:105A80009A702269DEE7236984F83920C0229A706F
:105A90002369114A1979012111700222DA7010BDAF
:105AA000C023937022691379CCE70122002384F884
:105AB0005D2084F83B30A1E7626994F861300949C0
:105AC00013440322187A01F06DFA2269ACE7626987
:105AD00094F861300449F3E729F2FF1F40BEFF1F2D
